:020000040800F2
:1000000018230020AD690008C1680008C368000813
:10001000C5680008C7680008C9680008000000003B
:10002000000000000000000000000000CB68000895
:10003000CD68000800000000CF680008D168000803
:10004000D7690008DB690008DF690008E369000878
:10005000E7690008EB690008EF690008F369000828
:10006000F7690008FB690008FF690008036A0008D7
:10007000076A00080B6A00080F6A0008136A000884
:10008000176A00081B6A00081F6A0008236A000834
:10009000276A00082B6A00082F6A0008336A0008E4
:1000A000DF680008E1680008E9680008EB680008FC
:1000B000376A00083B6A00083F6A0008436A000884
:1000C000476A00084B6A00084F6A0008536A000834
:1000D000576A0008ED6800085B6A00085F6A00085C
:1000E000636A0008676A00086B6A00086F6A0008A4
:1000F000736A0008776A00087B6A00087F6A000854
:10010000836A0008876A00088B6A00088F6A000803
:10011000936A0008976A00089B6A00089F6A0008B3
:10012000A36A0008A76A0008AB6A0008AF6A000863
:10013000B36A0008B76A0008BB6A0008BF6A000813
:10014000C36A0008C76A0008CB6A0008CF6A0008C3
:10015000D36A0008D76A0008DB6A0008DF6A000873
:10016000E36A0008E76A0008EB6A0008EF6A000823
:10017000F36A0008F76A0008FB6A00080000000044
:10018000FF6A0008036B0008F0B502EB0022A3F140
:1001900020005F2817D20598002467000FF6980505
:1001A00007EB03172F44A7F5007504EBC1062F7862
:1001B0004740975516446D78641C4540082C86F8D6
:1001C0008050EADBF0BD0020FF2300EBC104801C5F
:1001D00013551444082884F88030F6DBF0BD11B5BF
:1001E000DFF8C44781B000F023F800224FF400612B
:1001F00000F021F800F015F8012200F01AF80122B1
:100200004FF400610AE011B5DFF89C4781B000F0BF
:100210000FF800F006F801224FF4805100F00BF8BF
:1002200013BD6423012201A9DFF8800701F0D5B9CD
:1002300000224FF48051204601F0F8BB38B500246D
:1002400000F017F80020FFF7CAFF1020FFF7C7FFE4
:100250000025DFF85C0700EBC411EAB26D1C885C76
:10026000FFF7D1FFE8B28028F3DB641C082CE7DB42
:1002700031BDA4F15000C0B2B1E710B5DFF83427AA
:10028000536CC018062490FBF4F4062101FB140003
:10029000506410BDB8B5DFF81C47DFF81457216C67
:1002A0008DB001F5E141049104A801F0D9FB0027CC
:1002B000016803914268029281680191C2680FF25D
:1002C0002871521C0092036942695B1C02F26C7235
:1002D00005A801F0EFFB16E0052809D1A7F11600EB
:1002E00003E00428F8D1A7F11300022838BFFF214A
:1002F000FA1007EB1270009100112A46A7EB0011CB
:10030000FFF742FF7F1C05A8C35D93B1606C00211D
:1003100008B9042FEAE7012808BF781FE5D00228B2
:1003200008BFA7F10800E0D00328DAD1A7F1100038
:10033000DBE7FFF783FF0EB0B0BD000010B5DFF8BC
:1003400074365A6C1C6C052A18D8DFE802F00306D4
:10035000090C1115DFF860160BE0DFF8602604E0E9
:10036000DFF85C1605E04FF4616202FB004004E038
:100370003C2101FB004000E00019186410BD8842D8
:1003800001DB401A7047C1F5805140187047F8B53D
:1003900000F021F8B04200DA36E000F023F89619B8
:1003A000F01206EB10510913A6EB0136E6640020AB
:1003B000F2BDF8B500F00FF8B04200DA24E000F02A
:1003C00011F8521CD01202EB10510913A2EB0132AA
:1003D000E2640020F2BDDFF8DC4505460E46E16C24
:1003E000A06CCCE70020DFF8DC1509E08218D312FE
:1003F00002EB13573F13A2EB07328A5C2A54401CCE
:10040000E26CB042F2DB70474FF0FF30F2BDF8B55E
:10041000DFF8A045A56C0F460646E16C2846FFF7BD
:10042000AEFF3818B0F5805F00DBEDE70020DFF8A5
:10043000941509E04219D31202EB13531B13A2EBDC
:100440000332335C8B54401CB842F3DBEF19F812D3
:1004500007EB10510913A7EB0137A7640020F2BD89
:100460002DE9F04F99B001F045FB00F052F900F092
:10047000CBF9DFF83805DFF8501501604FF48272D0
:1004800000214260C160016141614FF40072182196
:100490008261C1614FF4004300220A21836002623D
:1004A00042628262C16201F057F800B1FEE7DFF8F4
:1004B0000455DFF8180528604FF4E1310C200022C4
:1004C00068616960AA60EA602A61AA61EA612846F7
:1004D00001F02AFB00B1FEE700F06FF90AA80FF265
:1004E0002C51DFF8C4441C2201F0E4FD0022082155
:1004F000FFF7A1FE01221021FFF79DFE01224FF41C
:100500008071FFF798FE00F0F8F800224FF4807138
:10051000FFF791FE00F0F1F801224FF48071FFF730
:100520008AFE00260AA8805DFFF759FE761C1C2E65
:10053000F8DB00221021FFF77EFEDFF89404286428
:100540000024FFF77BFE282105F6A4006143014447
:100550006423202200F0D4F800F0CFF8641C052CAE
:10056000F1DB6423102205F6941100F0C9F800F0C5
:10057000CAF800F0C2F8402405AE47469DF8048052
:1005800000F0B8F8FFB2492F02BFB8F1500F9DF844
:1005900004002C2808D1002700F0ACF89DF80400D6
:1005A000F0557F1C142FF7DB641EE6D14FF00008D6
:1005B000DFF8FC4300200090224616F80830414640
:1005C0000320FFF7E1FD08F10108B8F1100FF1DB9E
:1005D000FFF734FE00F08EF80028FBD0DFF8F403BC
:1005E0000FF24C480FF2404901F0C7FD642320226E
:1005F00005F6A41100F084F805F2A44005F1A40664
:100600000490A8A70DF1080A052102A8FFF7D1FE62
:1006100000208AF8050002A9484601F07FFF002863
:10062000F2D1052001F0A4FF042102A8FFF7AFFEDC
:10063000032102A8FFF7ABFE00208AF803008346DF
:100640000020009022461AF80B3059460220FFF78E
:100650009BFD0BF1010BBBF1100FF1DBFFF7EEFD82
:10066000394602A801F05AFF48B90F2111A8FFF737
:100670008EFE05F14002414611A801F08DFF0020D9
:10068000A96C2A6C8DF80800E96404980FF6A8316B
:1006900001F010FA049801F093FF049B0FF69811F3
:1006A0000246304601F006FA304601F089FF024664
:1006B00005F1640111A801F0FDF96423202211A9BC
:1006C000284601F06CFA0A2001F052FF304601F092
:1006D00077FF82B26423314600F012F80A2001F05D
:1006E00047FF6423202205F1840100F009F800F09F
:1006F0000AF889E7012101A849E6C82001F038BFBE
:10070000284601F04CBA012205F16001284601F0AB
:10071000A0BA80B592B0002000904FF48033AE486C
:10072000016841F0805101600021006800F08050B4
:1007300000900098A9480091026842F4804202604B
:100740000122006800F48040009006A800990692FB
:1007500002214FF480020C910D920821C0220E91CB
:100760000F920221042207931091119201F044FF8D
:1007700000B1FEE7022102910F204FF4A051019039
:100780000022049105910392032101A802F0B0F820
:1007900000B1FEE702F031F94FF47A71B0FBF1F0ED
:1007A00002F0BDF9042002F0CEF9002200214FF042
:1007B000FF3002F08DF913B000BD894810B5854CAB
:1007C000206041F287302F210022E0606160A2604A
:1007D0002261626186B0204601F0C2FC00B1FEE7F2
:1007E0004FF48050029002A9204601F087FD00B12D
:1007F000FEE70021009101912046694602F0C0F910
:1008000000B1FEE706B010BD10B586B0002005901F
:10081000654C7448016841F080010160026802F093
:1008200080020592002205990592036843F00103B6
:100830000360016801F0010105910599059241F6F7
:100840001811036843F002030360006800F002001F
:1008500005902046059B01F0E9F80722009200214F
:1008600001910122029200F020F8012201920292ED
:1008700008210091002200F017F8102100910122B8
:10088000002102910391019200F00FF84FF4C8513A
:1008900000910122019200210291032200F004F84C
:1008A00006B010BD3F743D0003926946204600F03B
:1008B000E5BF4849884200D0704738B53D4C3A4DB5
:1008C000206D401C206500F05BF8012804BF606DBE
:1008D000002804D10120FFF7D0FCFFF7DBFC042146
:1008E00000F04FF8012804BFE06D002805D14FF05B
:1008F000FF30FFF723FDFFF7CDFC022100F041F8A8
:10090000012804BFA06D002804D10120FFF716FDC7
:10091000FFF7C0FC00F034F86065022100F031F808
:10092000A065042100F02DF8E0656422206D90FBA5
:10093000F2F2642101FB120048B9102100F021F805
:10094000421E9241D20F1021284601F06FF810216B
:1009500000F017F8421E9241D20F0821284601F0FC
:1009600065F8206DC82290FBF2F2C82101FB12004D
:1009700028B9206C401C2064BDE831408AE431BDB8
:100980000121284601F04CB810B50A4C012104F1B0
:100990006000FFF73CFD04F160012046BDE8104017
:1009A000012201F056B9000000000240541E002050
:1009B000541A0020000000208033E101008D270040
:1009C00080510100540A0020003001400010014015
:1009D000B971C45BAC1E002040380240007000407A
:1009E0000000014030380240253034642F25303279
:1009F000642F2530326420202020202025303264CE
:100A00003A253032643A253032640000AE0040B1FD
:100A1000FFA1C8A6A83FD300D580D9F1DA12DB40E8
:100A200020028D14A6AFAF00474554202F000000D0
:100A3000256C6420000000000000000000000000A1
:100A40000000000000000000000000003800FC0D65
:100A5000FC0D38000000000000000E001E00000029
:100A600000001E000E0000002002F80FF80F200208
:100A7000F80FF80F2002000038037C064404471CDE
:100A8000471CCC0798030000300C3006000380019F
:100A9000C000600C300C00008007D80F7C08E40810
:100AA000BC07D80F40080000000010001E000E0018
:100AB000000000000000000000000000F003F80744
:100AC0000C0C0408000000000000000004080C0CDE
:100AD000F807F003000000008000A002E003C0015E
:100AE000C001E003A0028000000080008000E0035D
:100AF000E003800080000000000000000010001EE5
:100B0000000E0000000000008000800080008000D7
:100B10008000800080000000000000000000000C49
:100B2000000C000000000000000C00060003800123
:100B3000C000600030000000F807FC0F0409C40882
:100B40002408FC0FF8070000000010081808FC0F2C
:100B5000FC0F000800080000080E0C0F8409C408F0
:100B600064083C0C180C000008040C0C44084408F1
:100B70004408FC0FB8070000C000E000B00098086F
:100B8000FC0FFC0F800800007C047C0C4408440827
:100B9000C408C40F84070000F007F80F4C0844088D
:100BA0004408C00F800700000C000C00040F840FE5
:100BB000C4007C003C000000B807FC0F4408440857
:100BC0004408FC0FB807000038007C0844084408BB
:100BD000440CFC07F8030000000000000000300691
:100BE0003006000000000000000000000008300E89
:100BF000300600000000000000008000C00160031B
:100C00003006180C08080000400240024002400272
:100C1000400240024002000000000808180C3006A4
:100C20006003C0018000000018001C000400C40D17
:100C3000E40D3C0018000000F007F80F0808C80B8E
:100C4000C80BF80BF0010000E00FF00F98008C00CB
:100C50009800F00FE00F00000408FC0FFC0F4408A0
:100C60004408FC0FB8070000F003F8070C0C040858
:100C700004080C0C180600000408FC0FFC0F040804
:100C80000C0CF807F00300000408FC0FFC0F4408EC
:100C9000E4080C0C1C0E00000408FC0FFC0F4408B8
:100CA000E4000C001C000000F003F8070C0C8408A2
:100CB00084088C07980F0000FC0FFC0F40004000D8
:100CC0004000FC0FFC0F0000000000000408FC0FB7
:100CD000FC0F0408000000000007000F00080408D3
:100CE000FC0FFC07040000000408FC0FFC0FC00010
:100CF000F0013C0F0C0E00000408FC0FFC0F040870
:100D00000008000C000E0000FC0FFC0F3800700003
:100D10003800FC0FFC0F0000FC0FFC0F38007000C7
:100D2000E000FC0FFC0F0000F003F8070C0C0408B7
:100D30000C0CF807F00300000408FC0FFC0F44083B
:100D400044007C0038000000F807FC0F0408040E83
:100D5000043CFC3FF82700000408FC0FFC0F440093
:100D6000C400FC0F380F000018063C0E640844084D
:100D7000C4089C0F1807000000001C000C08FC0FA2
:100D8000FC0F0C081C000000FC07FC0F000800080A
:100D90000008FC0FFC070000FC01FC030006000C2F
:100DA0000006FC03FC010000FC03FC0F000E8003A6
:100DB000000EFC0FFC0300000C0C3C0FF003C00005
:100DC000F0033C0F0C0C000000003C007C08C00F3E
:100DD000C00F7C083C0000001C0E0C0F8409C408E6
:100DE00064083C0C1C0E000000000000FC0FFC0F0F
:100DF000040804080000000038007000E000C00192
:100E000080030007000E0000000000000408040832
:100E1000FC0FFC0F0000000008000C00060003009F
:100E200006000C0008000000002000200020002028
:100E30000020002000200020000000000300070028
:100E400004000000000000000007A00FA008A00898
:100E5000E007C00F000800000408FC0FFC07200892
:100E60006008C00F80070000C007E00F20082008BE
:100E70002008600C400400008007C00F60082408B0
:100E8000FC07FC0F00080000C007E00FA008A00846
:100E9000A008E00CC00400004008F80FFC0F440854
:100EA0000C00180000000000C027E06F2048204818
:100EB000C07FE03F200000000408FC0FFC0F400052
:100EC0002000E00FC00F0000000000002008EC0F21
:100ED000EC0F00080000000000000030007000402F
:100EE0002040EC7FEC3F00000408FC0FFC0F800169
:100EF000C003600E200C0000000000000408FC0F7E
:100F0000FC0F000800000000E00FE00F6000C00FC1
:100F10006000E00FC00F00002000E00FC00F2000B5
:100F20002000E00FC00F0000C007E00F20082008DD
:100F30002008E00FC00700002040E07FC07F20486D
:100F40002008E00FC0070000C007E00F200820487D
:100F5000C07FE07F204000002008E00FC00F600845
:100F600020006000C00000004004E00CA00920093F
:100F7000200B600E4004000020002000F807FC0F4A
:100F80002008200C00040000E007E00F0008000823
:100F9000E007E00F000800000000E003E007000C9D
:100FA000000CE007E0030000E007E00F000C000782
:100FB000000CE00FE00700002008600CC007800371
:100FC000C007600C20080000E047E04F00480048E0
:100FD0000068E03FE01F0000600C600E200BA009DD
:100FE000E008600C200C0000000040004000F80702
:100FF000BC0F040804080000000000000000BC0F43
:10100000BC0F000000000000000004080408BC0F32
:10101000F80740004000000008000C0004000C002D
:1010200008000C00040000008007C00760043004C2
:101030006004C00780070000485454502F312E31FF
:1010400020323030204F4B0D0A436F6E74656E7442
:101050002D547970653A20746578742F68746D6CBE
:101060003B636861727365743D5554462D380D0AB3
:10107000436F6E74656E742D4C656E6774683A25A7
:10108000640D0A0D0A257300000000000000000036
:101090000000000000000000000000000000000050
:1010A0000000000000000000000000000000000040
:1010B0000000000000000000000000000000000030
:1010C0000000000000000000000000000000000020
:1010D0000000000000000000000000000000000010
:1010E0000000000000000000000000000000000000
:1010F00000000000000000000000000000000000F0
:1011000000000000000000000000000000000000DF
:1011100000000000000000000000000000000000CF
:1011200000000000000000000000000000000000BF
:1011300000000000000000000000000000000000AF
:10114000000000000000000000000000000000009F
:10115000000000000000000000000000000000008F
:10116000000000000000000000000000000000007F
:10117000000000000000000000000000000000006F
:10118000000000000000000000000000000000005F
:10119000000000000000000000000000000000004F
:1011A000000000000000000000000000000000003F
:1011B000000000000000000000000000000000002F
:1011C000000000000000000000000000000000001F
:1011D000000000000000000000000000000000000F
:1011E00000000000000000000000000000000000FF
:1011F00000000000000000000000000000000000EF
:1012000000000000000000000000000000000000DE
:1012100000000000000000000000000000000000CE
:1012200000000000000000000000000000000000BE
:1012300000000000000000003C68746D6C3E3C68DB
:101240006561643E3C7363726970743E76617220BE
:1012500074696D653D256C642A313030303B7769A7
:101260006E646F772E6F6E6C6F61643D66756E6332
:1012700074696F6E28297B736574496E7465727624
:10128000616C2866756E6374696F6E28297B766160
:1012900072206E643D6E6577204461746528293B39
:1012A0006E642E73657454696D652874696D652963
:1012B0003B646F63756D656E742E676574456C6510
:1012C0006D656E74427949642822746D22292E69F5
:1012D0006E6E657248544D4C3D6E642E746F4C6F4B
:1012E00063616C65537472696E6728293B74696D1C
:1012F000652B3D313030307D2C31303030297D0A46
:1013000066756E6374696F6E20737428297B7661CD
:101310007220613D6E6577204461746528646F6357
:10132000756D656E742E676574456C656D656E745C
:1013300042794964282264746922292E76616C7589
:10134000652B2220222B646F63756D656E742E678A
:101350006574456C656D656E7442794964282274C4
:101360006D6922292E76616C7565293B6966286155
:10137000213D6E756C6C297B76617220616A6178A3
:101380003D6E657720584D4C487474705265717588
:1013900065737428293B616A61782E6F70656E28C9
:1013A00027676574272C272F3F743D272B4D6174C9
:1013B000682E666C6F6F7228612E67657454696D54
:1013C0006528292F3130303029293B616A61782E18
:1013D0006F6E726561647973746174656368616E60
:1013E00067653D66756E6374696F6E28297B7769E2
:1013F0006E646F772E6C6F636174696F6E2E6872A6
:1014000065663D272F273B7D3B616A61782E7365BA
:101410006E6428293B7D7D3C2F7363726970743E36
:101420003C7469746C653E434C4F434B3C2F74696C
:10143000746C653E3C2F686561643E3C626F647904
:101440003E54696D653A3C6469762069643D227456
:101450006D223E3C2F6469763E3C62723E53455499
:101460003A3C696E70757420747970653D226461D0
:101470007465222069643D22647469223E3C2F69B0
:101480006E7075743E3C696E707574207479706509
:101490003D2274696D65222069643D22746D692264
:1014A0003E3C2F696E7075743E3C627574746F6E4D
:1014B000206F6E636C69636B3D2273742829223E32
:1014C0005345543C2F627574746F6E3E3C2F626FAF
:1014D00064793E3C2F68746D6C3E202020202020D3
:1014E00020200D0A000000000000000000000000A5
:1014F00000000000000000000000000000000000EC
:1015000000000000000000000000000000000000DB
:1015100000000000000000000000000000000000CB
:1015200000000000000000000000000000000000BB
:1015300000000000000000000000000000000000AB
:10154000000000000000000000000000000000009B
:10155000000000000000000038B5040001D10120A7
:1015600032BD0020A06204F15005687820B9002146
:101570002970204601F071FB0220687000F027F806
:101580006268A168E06823680A43216902436069D0
:101590000A43A169024301F40071E0690A43216A28
:1015A0000243A06A0A4302431A60A169606A226882
:1015B000090C01F00401014351602068C16921F464
:1015C0000061C161002068600121697032BD20683E
:1015D000016821F04001016070472DE9F84304469D
:1015E00004F150060027307801280D4691469846B0
:1015F00008BF022000F099800120307001F0BAFB92
:101600007178012918BF022740F08A80290018BF8D
:10161000B9F1000F00F083800322727077602163BC
:10162000A4F83490A4F83690A763A787E787676487
:101630002764A368B3F5004F04D12268136843F40C
:1016400080431360226813685D0603D4136843F077
:1016500040031360E268B2F5006F626827D1002A88
:101660001CBFE28E012A06D1226831F8023BD3600A
:10167000E38E5A1EE2868946054605E039F8021BCC
:10168000C160E08E411EE186E08E00284FD02068C8
:1016900081688A07F2D4B8F1000F51D018F1010F18
:1016A000F2D001F067FB401B4045EDD348E0002A33
:1016B0001CBFE28E012A06D1226811F8013B137388
:1016C000E38E5A1EE2868946054605E019F8011B9D
:1016D0000173E08E411EE186E08E40B32068816890
:1016E0008A07F3D4B8F1000F2AD018F1010FF3D014
:1016F00001F040FB401B4045EED321E02A46414625
:10170000204600F065F818B120200127706007E03E
:10171000A06810B9009700F06DF8706800B101275B
:1017200001207070002131703846BDE8F2830095C9
:10173000434601220221204600F004F80028DDD0B3
:101740000327EDE72DE9F041069F05460E4690463A
:101750001C46286881683140B1420CBF012000203E
:10176000404532D014F1010FF3D024B101F002FB57
:10177000C01BA042EDD32868416821F0E001416020
:101780006868B0F5827F09D1A868B0F5004F18BF2E
:10179000B0F5806F02D12868FFF71AFFA86AB0F58C
:1017A000005F0AD129680A684DF6FF7002400A609E
:1017B0002868016841F40051016005F150000121E1
:1017C000417000220270032000E00020BDE8F0819B
:1017D0001CB500920B46044600228021FFF7B2FFA1
:1017E00010B100F002F8032016BD606D40F020003B
:1017F000606570472168CA68009289680091009A04
:101800007047F0B40246106895681318506803EBEF
:101810005004C0071DD54D441BE013F8017B05F8AB
:10182000017B491EF9D1A0B1B60813F8011B06F0DF
:101830000306032E08BF13F8016B01EB0621494292
:10184000801C294405D011F8016B05F8016B401E7E
:10185000F9D1A3420ED013F8016B16F0030104BFB7
:1018600013F8011BC91C30090F28DAD113F8010B3A
:101870000F30D6E7F0BC02F10C0070472DE9F847B5
:1018800002460B4600246B480F2101271D68A74024
:1018900007EA0508B84540F0BD805D68022D18BF15
:1018A000122D4FEA840911D1E50802EB850C09F0ED
:1018B0001C05DCF820E0D3F810A001FA05F62EEAAA
:1018C00006060AFA05F53543CCF820504FEA440CD9
:1018D0000326156806FA0CF66FEA060E1E7906F066
:1018E00003060EEA050506FA0CF6354315605D6839
:1018F000012D18BF022D03D0112D18BF122D10D1AC
:101900009568DE680EEA050506FA0CF63543956023
:10191000556825EA07075D68C5F30015A5402F4304
:101920005760D7680EEA07059F6807FA0CF635433B
:10193000D5605D68EF006DD50025009509F00C09B4
:1019400007683D4E47F48047076001FA09FE0568C5
:1019500005F480450095009FA70856F8275025EA12
:101960000E0E364DAA4208BF002522D0344DAA42A1
:1019700008BF01251DD0334DAA4208BF022518D04B
:10198000314DAA4208BF032513D0304DAA4208BFEB
:1019900004250ED02E4DAA4208BF052509D02D4D95
:1019A000AA4208BF062504D02B4DAA420CBF07252A
:1019B000082505FA09F545EA0E0546F827506FEAAD
:1019C0000807264E356807EA050C5D68ED0348BF39
:1019D00048EA0C0CC6F800C0756807EA050C5D689B
:1019E000AD0348BF48EA0C0CC6F804C0B56807EA66
:1019F000050C5D68ED0248BF48EA0C0CC6F808C04B
:101A0000F56807EA050C5F68BD0248BF48EA0C0CA0
:101A1000C6F80CC0641C0F2C7FF637AFBDE8F18709
:101A20000069084018BF0120C0B2704702B909041C
:101A3000816170474438024008380140000002408C
:101A40000004024000080240000C02400010024066
:101A50000014024000180240001C0240003C0140FB
:101A600010B5044601F08CF92168BDE8104041181A
:101A70004FF0FF32002001F085B930B4002513E0AB
:101A800050F8042BD30744BFA9F101039A18091F8A
:101A9000042942F8045BFAD213468C0744BF158030
:101AA0009B1CC90748BF1D7050F8041B0029E7D1D3
:101AB00030BC70470CB430B583B00A4606A9029119
:101AC000044600250194009502AB01A9084878441A
:101AD0001E3001F0D9F9019A157000284EBF044656
:101AE0000198041B204603B030BC5DF80CFB00BF1E
:101AF000770A000080B50B48016841F4007101606D
:101B0000026842F480620260016841F48071016001
:101B1000032000F0D0FF002002F074F901F056F825
:101B2000002002BD003C024038B5040001D1012074
:101B300032BD00F021F808B900F022F800F012F8E8
:101B400000F023F8FFE7416100F001F832BD2068A2
:101B5000C16841F40051C1600020686020216970B3
:101B6000A9707047242068702068C16821F4005172
:101B7000C160204600F0CAB904F1380568787047A2
:101B800000212970204601F0B5B82068016921F4D0
:101B9000904101612068416921F02A0170472DE9D7
:101BA000F843054605F138070C4678782028164694
:101BB00098463DD1002C14BF002E012039D0387832
:101BC000012835D0012139700020786021227A70F7
:101BD00001F0D0F8AE848146EE8403E0296814F861
:101BE000010B4860E88C30B3E88C411EE9844B4619
:101BF000A868CDF80080B0F5805F0DD100F025F821
:101C000070B920882968C0F3080048602869002856
:101C100014BF641CA41CE5E700F017F80028DDD011
:101C2000032006E02020787000213970002000E0B9
:101C30000220BDE8F283CDF800804B46002240210F
:101C400000F005F80028EDD0EAE7002280212846C0
:101C5000D2E010B500F138039C78202C1DD109B1D9
:101C6000140001D1012010BD1C78012C15D00124D5
:101C70001C7081628285C2850021596022229A707F
:101C8000197001684A6942F001024A610068C1683E
:101C900041F49071C160002010BD022010BD416967
:101CA00021F040014161606B704738B504462568FA
:101CB0002968EA686B6911F00F0007D188065DD5C5
:101CC00093065BD52046BDE83240DBE0D80702D45E
:101CD00012F4907F52D0C80705D5D50503D5E06B27
:101CE00040F00100E063480705D5DD0703D5E06B50
:101CF00040F00200E063880705D5DD0703D5E06BFF
:101D000040F00400E063080705D5DB0703D5E06B6E
:101D100040F00800E063E06B00286CD0880604D532
:101D2000910644BF204600F0ADF820684069E16BA1
:101D30000A0701D440061BD5204600F08FF8206822
:101D400041694A060FD5FFF7AAFF60B10FF22911CA
:101D50000165606B02F076F800284CD0606B016D75
:101D6000BDE8344008472046BDE8324002F07CB868
:101D7000204602F079F80020E06331BD08062AD53C
:101D8000130628D594F83900212834D1A068B0F57D
:101D9000805F206A0BD10188C1F308016960206966
:101DA0000028206A0CBF811C411C216203E0411CF9
:101DB000216200786860E08C401EE08480B2D0B977
:101DC0002068C16821F08001C1602068C16841F0CD
:101DD0004001C16031BD48060DD551060BD5E868FC
:101DE00020F04000E860202184F839102046BDE84A
:101DF000324002F03AB831BD2DE9F041069C05466B
:101E00000E4690461F46286801683140B1420CBF1B
:101E100001200020404517D114F1010FF3D024B167
:101E200000F0A8FFC01B8442EDD22868C16821F4ED
:101E3000D07100F00CF805F138002021417081705C
:101E400000210170032000E00020BDE8F081C160A6
:101E50002868416949084900416170470168CA68BA
:101E600022F49072CA6001684A69520852004A61BD
:101E7000202180F83A107047806B0021C185C18411
:101E800001F0F2BF80B590F83A1022293CD1816868
:101E9000B1F5805F12D101690368826A002959682F
:101EA00005D1C1F308011180826A911C04E001F0A0
:101EB000FF011180826A511C81620FE001690029D3
:101EC000816A04D14A1C826203685A6805E04A1C90
:101ED000826203685A6802F07F020A70C18D491E4F
:101EE000C18589B271B90168CA6822F49072CA606A
:101EF00001684A69520852004A61202180F83A106C
:101F0000FEF742FD002002BD022002BD2DE9F04790
:101F10000446642522681169E06821F440510143B8
:101F200011611926D3684948A168034020690B4311
:101F300061690343E0690B430343D3605169A069BE
:101F400021F4407101435161E36941484149B3F5CE
:101F5000004F3BD18A4218BF82420ED100F058FD9B
:101F6000074600F055FD804600F052FD814600F026
:101F70004FFD824600F04CFD0DE000F041FD0746AC
:101F800000F03EFD804600F03BFD814600F038FD4C
:101F9000824600F035FD6168490000F06CF8AE46FD
:101FA000BCFBFEFE05FB1E77FF0032376423B7FB48
:101FB000F3F35B0003F4F87300F04EF8ED003235F4
:101FC0006420B5FBF0F000F0070039E08A4218BF4A
:101FD00082420ED100F01CFD074600F019FD80463C
:101FE00000F016FD814600F013FD824600F010FD62
:101FF0000DE000F005FD074600F002FD804600F010
:10200000FFFC814600F0FCFC824600F0F9FC6168B0
:10201000890000F030F8AE46BCFBFEFE05FB1E77E3
:102020003F0132376423B7FBF3F303F0F00300F012
:1020300013F82D0132356420B5FBF0F000F00F00ED
:102040002168C3188B60BDE8F0870000F369FFFFCB
:10205000001401400010014003EB021306FB0AF7D5
:102060004643B7FBF1F2B6FBF1F06421B0FBF1F1AE
:1020700005FB112570477743B7FBF1F36422B3FBEF
:10208000F2F206FB08F3B3FBF1F706FB09F3B3FB2F
:10209000F1FC704762B38B0708D0521E11F8013B68
:1020A00000F8013B00F024808B07F6D1830740F055
:1020B000208000BF103A07D330B4B1E83810103A8E
:1020C000A0E83810F9D230BC530724BFB1E808109B
:1020D000A0E8081044BF51F8043B40F8043BD20785
:1020E00024BF31F8022B20F8022B44BF0B78037079
:1020F0007047121F17D35B0009D151F8043B20F839
:10210000023B1B0C121F20F8023BF6D20BE051F8E9
:10211000043B00F8013B1B0A20F8023B1B0C121F7A
:1021200000F8013BF3D238BF121D521E24BF11F834
:10213000013B00F8013BF8D87047B1F5807F02D32E
:102140004FF0FF3070470170012070470A7802603D
:10215000087800E00078401E8041C043C00F7047FF
:1021600038B5040001D1012032BD00F01FF818B9C4
:1021700000F018F800F08BFD0AE00068C16841F03B
:102180000101C160026842F0010202600020704754
:1021900002206870211D206800F01BF90120687082
:1021A000002032BD002129702046704704F1380517
:1021B0006878704710B50446206801698A0715D50C
:1021C000C1688A0712D56FF00201016101222276EF
:1021D000806910F0030F204602D001F047FE03E0B3
:1021E00001F045FE00F087F80020207620680169A4
:1021F0004A0715D5C1684A0712D56FF0040101617D
:1022000002222276806910F4407F204602D001F03D
:102210002DFE03E001F02BFE00F06DF8002020768B
:10222000206801690A0715D5C1680A0712D56FF041
:102230000801016104222276C06910F0030F2046D4
:1022400002D001F013FE03E001F011FE00F053F89C
:102250000020207620680169CA0615D5C168CA0623
:1022600012D56FF01001016108222276C06910F4C6
:10227000407F204602D001F0F9FD03E001F0F7FDB8
:1022800000F039F80020207620680169CA0708D5D7
:10229000C168CA0705D56FF0010101612046FEF74C
:1022A00008FB206801690A0608D5C1680A0605D539
:1022B0006FF080010161204601F0DAFD20680169BC
:1022C0004A0608D5C1684A0605D56FF0400101618C
:1022D000204601F0CEFD206801698A060AD5C16852
:1022E0008A0607D56FF0200101612046BDE8104045
:1022F00001F0C0BD10BD204601F0BDBD38B500F0F5
:102300005CF801D1022032BD0120207002226270EF
:10231000DFF850012A689368034093600A68002A36
:1023200037D0102A37D0202A37D0302A37D0402A49
:102330002BD0502A1ED0602A20D0702A0BD0B2F5A4
:10234000805F03D0B2F5005F0CD02CE02868816874
:10235000C908C9000CE000F02BF82868816841F03A
:10236000770105E000F024F82868816841F4804195
:10237000816018E000F018F8502111E0CA6849683F
:10238000286800F098F860210AE000F00DF840217C
:1023900006E0002104E0102102E0202100E03021CD
:1023A000286800F09AF80EE0CA684968286871E069
:1023B000CB684A688968286897E0054605F13804C3
:1023C00020780128704701206070002121700020D2
:1023D00032BDF0B5244C0568244B254E254FDFF85F
:1023E00098C0A04218BFB0F1804F07D0604518BF19
:1023F000B84203D0B04218BF98420DD14A6825F0C8
:1024000070051543A04218BFB0F1804F17D060454A
:102410001CBFB842B04212D098421CBF174A90422B
:102420000DD0174EB0421CBF164A904207D0164E30
:10243000B0421FBF154A9042154EB04203D1CA6840
:1024400025F4407515430560A0428D68C5620A6891
:10245000826212BF98420969016301224261F0BDA4
:10246000000000008800FFFF000001400004014060
:10247000000C004000080040000400400040014003
:10248000004401400048014000180040001C00408A
:102490000020004010B5036A046A64086400046206
:1024A00023F00A03846924F0F00444EA02148461EE
:1024B0001943016210BD10B5036A23F010030362D3
:1024C0008369046A23F4704343EA023324F0A004CE
:1024D000836144EA0114046210BD826822F0700234
:1024E000114341F007018160704710B5846824F4FE
:1024F0007F442143114341EA0321816010BD0368F9
:102500001AB95A1E026008467047197811B94FF07F
:10251000FF307047591C01601878704781EA00034A
:102520009B0717D1820707D010F8012B11F8013B48
:10253000BAB19A42F6D014E002680B689A42A2F14E
:10254000013301BF934313F0803F50F8042F51F83B
:10255000043FF3D010F8012B11F8013B0AB19A4265
:10256000F8D0D01A70470268531C0360117070478E
:1025700038B5044600F0FEFB14F1010F054602D009
:1025800004480178641800F0F5FB401BA042FAD320
:1025900031BD00BFC40900200DB4C0B50A4604A86F
:1025A00000210190009101AB03A9044878440C304C
:1025B00001F080FC06BC5DF810FB00BF43FFFFFF8D
:1025C00000F10103810704D010F8011B820781B1DB
:1025D000FAD10268A2F10131914311F0803104BFB8
:1025E00050F8042FF6E709BAB1FA81F100EBD100F7
:1025F000401CC01A704700002DE9F843040017D0B2
:102600002078B74EC10745D5B06800F00C0004280B
:1026100007D0B06800F00C0008280BD170684102A8
:1026200008D53068810335D56068002840F0BA804D
:10263000012053E16068B0F5803F04D1306840F478
:102640008030306011E0B0F5A02F306806D140F442
:1026500080203060316841F4803105E020F4803022
:102660003060316821F480213160606868B100F029
:1026700081FB05463068810300F1948000F07AFB0D
:10268000401B6528F6D3032028E100F073FB0546C4
:102690003068810340F1868000F06CFB401B6528A8
:1026A000F6D3F0E700F066FB401B022840F2A7805B
:1026B000E9E7E06870B10121396000F05BFB054695
:1026C0003068810700F1CB8000F054FB401B0228EA
:1026D000F6D9D8E7386000F04DFB05463168880729
:1026E00063D500F047FB401B0228F7D9CBE7086011
:1026F00000F040FB0546706F810775D500F03AFB8E
:10270000401B0228F7D9BEE70528306F06D140F0FC
:1027100004003067306F40F0010005E040084000E1
:102720003067306F20F00400306741F28938A068CC
:1027300068B100F01FFB8146306F810700F19C807B
:1027400000F018FBA0EB09004045F5D39BE700F033
:1027500011FB8146306F810740F18E8000F00AFB4B
:10276000A0EB09004045F5D38DE700F003FB401BCB
:10277000022840F2968086E700F0FCFA001B02284F
:1027800040F2A7807FE70020386600F0F3FA0446A5
:102790003068810140F1A18000F0ECFA001B0228B2
:1027A000F6D970E720784F4F81071BD5B06810F03D
:1027B0000C0F09D0B06800F00C0008287FF479AF46
:1027C000706841023FF575AF3068810703D5E06856
:1027D00001287FF42DAF3168206921F0F80141EA2A
:1027E000C0013160217808070DD560693E49002895
:1027F0003FF47DAF01220A6000F0BCFA0546706F1D
:1028000081077FF54FAF207841073AD5306C00251E
:10281000C1000AD400950125316C41F0805131642A
:10282000306C00F0805000900098DFF8C080D8F83D
:102830000000C1051BD4D8F8000040F48070C8F82F
:10284000000000F097FA8146D8F80000C1050ED4C8
:1028500000F090FAA0EB09000228F5D913E73068E0
:10286000216920F0F80040EAC1003060BAE7A068B2
:1028700001287FF449AF4DE71DB1306C20F0805046
:102880003064A06948B3B16801F00C0108293FF435
:10289000CFAE02287FF477AF0020386600F06AFAE6
:1028A0000546306881013FF560AFE269206A616AE0
:1028B0000243A06A400842EA8112401E42EA0042F6
:1028C000E06A42EA006272600121396600F052FA61
:1028D0000446306881017FF54FAF0020BDE8F283E8
:1028E0000038024000004742800E4742007000401E
:1028F0002DE9F04104000F4677D04A4E306800F0D1
:102900000F00B84202D200F072F86ED12068464D36
:10291000810712D5400703D5A96841F4E051A960A9
:102920002078010703D5A86840F46040A860A96832
:10293000A06821F0F0010143A9602178C8074CD5B7
:102940006068012802D129688A0305E0022818BFBF
:10295000032803D129688A0103D446E029688A073D
:1029600043D5A968890840EA8100A86000F002FA0E
:102970008046A868616800F00C00B0EB810F2CD095
:1029800000F0F8F9A0EB080041F289318842F0D359
:10299000032020E02078410705D5AA68E06822F4EA
:1029A000E0520243AA602178080706D5A968206989
:1029B00021F4604141EAC001A96000F03FF8AA6833
:1029C0001A491B4BC2F30312895CC84018600020EF
:1029D00001F018FA0020BDE8F081306800F00F0027
:1029E0008742D7D200F003F8D4D00120F3E7377044
:1029F000316801F00F01B94270470D480068704717
:102A00000B480C4A006813680B49C3F3822206E0A6
:102A10000748084A006813680749C3F34232895CD3
:102A2000C8407047003C024000380240B0680008CF
:102A3000D009002008380240C869000830B5144C9D
:102A4000606800F00C00042802D0082802D01DE0C5
:102A5000104830BD226820680023410202F03F0286
:102A600004D525680B49C5F3881003E020680A499E
:102A7000C0F38810A1FB000102F05AF92168C1F3EC
:102A80000141491C4900B0FBF1F030BD024830BDA6
:102A90000438024000127A000024F4000901020008
:102AA00006D52F4A00F00F00104400F8041C7047B0
:102AB0002C4B195470472C4B19684FF6FF0200023B
:102AC000114000F4E060084328490843186070474B
:102AD00038B5254B1C68C4F30223C3F10704052C49
:102AE00028BF04241D1D072D34BF0023DB1E012534
:102AF00005FA04F4641E2140994005FA03F35B1EB5
:102B00001A401143BDE83440C8E7012200F01F011C
:102B1000174BFFE78A40400943F82020704710B563
:102B2000401EB0F1807F01D3012010BD114C6060C8
:102B30000F214FF0FF30FFF7B1FF0021A160072008
:102B40002060002010BD04280A4904D1086840F024
:102B50000400086070470A6822F004020A607047A7
:102B600018ED00E000E400E00CED00E00000FA05E4
:102B700000E100E010E000E000F000B87047000065
:102B800030B500F138031A78012A01D1022030BD96
:102B900001221A7002245C700268546824F07004E8
:102BA0005460046865680A68154365600268946843
:102BB00024F0800494600268946848680443946038
:102BC000012159700020187030BD000080B5002030
:102BD000009000226148416841F4804141604168B1
:102BE00001F48041009100990092036843F0805302
:102BF0000360006800F08050009000980320FFF709
:102C00005AFF002200216FF00B00FFF761FF002246
:102C100000216FF00A00FFF75BFF002200216FF038
:102C20000900FFF755FF002200216FF00400FFF7B5
:102C30004FFF002200216FF00300FFF749FF002241
:102C400000216FF00100FFF743FFBDE808400022BC
:102C500000214FF0FF30FFF73BBF0068404988423A
:102C600000D0704780B586B000F06CF841F4805118
:102C70000160A021006800F4805000F069F8002194
:102C800003910322052100F058F807B000BD006849
:102C90003649884200D0704780B500223148009202
:102CA000016841F0010101600021006800F00100AD
:102CB000009000981820FFF70BFF1820FFF725FF62
:102CC000002200211920FFF703FF1920FFF71DFF45
:102CD000002200211A20FFF7FBFE1A20FFF715FF44
:102CE000002200211B20FFF7F3FEBDE802401B205D
:102CF000FFF70BBF00681E49884200D0704780B5BF
:102D000086B000F01FF841F0100101604FF4C0617F
:102D1000006800F0100000F01BF80121039103226D
:102D2000072100F00AF8002200212520FFF7D0FE3D
:102D30002520FFF7EAFE07B000BD0591049201A926
:102D4000FEF79CBD002207480092022201687047EE
:102D50000090009804480191029270474038024068
:102D600000300140443802400000024000000140B1
:102D70000010014001484068704700BFC4090020AE
:102D8000002070472DE9F84F07003048DFF8C0A059
:102D900008BF304F00EB010B3A620BF56160009009
:102DA0000FF2B40840F26D192BE040460C2100F1FF
:102DB000180232F9023D491E9E42FADB0AFB15BB9E
:102DC000396130F911004FF46161361ABBFBF1F043
:102DD000B86001FB10BB3C20BBFBF0F07860761CB8
:102DE000C0EB0011FE60ABEB81003860386A002850
:102DF00028D5384602F0B4F80028386222DDDDF824
:102E000000B0BBFBFAF5681C072190FBF1F1C1EBA8
:102E1000C101401AB86195FBF9F400E0641E00217D
:102E2000204602F0A1F809FB04008542F6DB2E1AC9
:102E300014F0030F7C61FE6101D1002CB5D100BFFD
:102E40000BA0B3E73846BDE8F28F0000807EAA836E
:102E500080510100E81E002000001F003C005B00C4
:102E600079009800B600D500F400120131014F013D
:102E700000001F003B005A0078009700B500D40006
:102E8000F300110130014E012DE9F04F0FF2A41CA7
:102E9000A1B0DCE90089CDE900892A9DDFF8109C0A
:102EA000049100248DF843500D944FF0FF38824672
:102EB00016461F460FE0B3462C461BF8011B04982C
:102EC000D0470028049000F0A2800D98401C641E9A
:102ED0000D90F2D176193078252808D100210022F2
:102EE0000791089209910A920B910C920DE06A46A3
:102EF0004146304602F0DFF8050001D10D98A1E00F
:102F0000D9D50125E6E741F0010116F8010F202887
:102F1000F9D023280CD02B2804D02D2805D0302818
:102F200009D076E041F00201EFE741F00401ECE75F
:102F300041F00801E9E741F01001E6E70F9209E0EE
:102F40000F98484505DA00EB800402EB4402303A62
:102F50000F92761C3278A2F130000A28F0D3307834
:102F60002E2818BFCDF8388022D116F8010F2A2854
:102F700007D138683860761C50F8042B38600E9200
:102F800016E02D280CBF761C002000220E920AE0CD
:102F900040B90E9A4A4505DA02EB820403EB44037A
:102FA000303B0E93761C3378A3F130020A2AEFD31C
:102FB000ADF8401021A0317802F08EF808B116F873
:102FC000010B8DF842009DF84200682804D130784A
:102FD00068280AD1622105E06C2804BF30786C288B
:102FE00003D171218DF84210761C12A806903A4642
:102FF00016F8013B02A9504600F064F838B912AA4D
:1030000002A9504600F0CAF900287FF564AF404697
:1030100018E02A2892D13A683A6052F8040B3A60D4
:1030200000280F9003D540420F9041F00401761C18
:1030300095E700000000000000000000686A6C7462
:103040007A4C000021B0BDE8F08F622820D06828BB
:1030500011D06A2803D06C2827D0712825D10868A0
:10306000C01D20F007000860D0E900230830086088
:10307000194610467047002A0A680A60106803D093
:10308000121D0A6000B217E0121D0A6080B217E03C
:10309000002A0A680A60106803D0121D0A6040B254
:1030A0000AE0121D0A60C0B20AE0002A0A680A603B
:1030B000106803D0121D0A60C1177047121D0A6004
:1030C000002170477CB50D4611461C462E69B4F1AF
:1030D000250200F051811C3A00F08680121F022A5E
:1030E00040F282800E3A00F00B81521F5AD0093A0A
:1030F0007AD0921E16D0521E35D0521E022A73D993
:10310000121F30D0521F00F09A80521E4AD0521E19
:1031100000F0E480D21E00F00181921E42D0D21E47
:1031200040D02FE195F83A406C2C09D06869421CD8
:103130006A610A680A6052F8043B0A6033542BE162
:103140000A680A6052F8043B0A6000930022019268
:103150004FF0FF332B636A46294600F09AF90028A6
:1031600040F11A8105E195F83A000122FFF76DFF61
:10317000C5E900010023994204DA6869411C6961CC
:103180002D220DE0288F810704D56869411C6961F3
:103190002B2205E0C00722D56869411C6961202205
:1031A00032541CE095F83A000022FFF74EFFC5E9C3
:1031B000000195F83800010711D5D5E9002300205A
:1031C000834208BF82420AD044F02000782806D10A
:1031D000686930213154401C421C6A6134542146D4
:1031E00068693044E86087E00868C01D20F0070087
:1031F0000860D0E9002308300860C5E90023D5E95C
:103200000001C80F04D06869411C69612D220DE0DE
:10321000288F810704D56869411C69612B2205E06C
:10322000C00704D56869411C69612022325468696D
:103230003044E8602146284600F03AFAACE005F157
:103240003A02507820B14FF0FF340FF6343074E07A
:103250001078622808D0682824D06A2812D06C28F8
:103260002ED071280ED02BE00A680A6052F8040BA9
:103270000A6020B94FF0FF340FF61C305DE0E96AB8
:10328000017089E00A680A6052F8040B0A6020B9EC
:103290004FF0FF340FF600304FE0EA6AD317C0E971
:1032A000002379E00A680A6052F8040B0A6020B92A
:1032B0004FF0FF340FF6E0203FE0E96A01806BE059
:1032C0000A680A6052F8040B0A6020B94FF0FF3414
:1032D0000FF6C42031E0E96A01605DE00A680A6027
:1032E00052F8040B0A60002120F0000221F0FF33A5
:1032F000C5E90023EE607821284600F02DF94BE067
:103300006C2285F83A200B680B6053F8042B0B6095
:1033100052BB4FF0FF340FF6B4200EE095F83A2080
:103320006C2AF0D00868086050F8044B0860EC6024
:103330003CB94FF0FF340FF6782001F0D9FE201A87
:1033400076BD2E6B002E04D52046FFF739F90446D2
:1033500008E032460021204601F0EAFE002814BFB2
:10336000041B3446AC6117E0294600F092F80028AF
:1033700012D54FF0FF3076BD6869411C6961252286
:10338000325409E06969481C6861252272542100A1
:1033900002D0431C6B613454002076BD2DE9F0410E
:1033A0000E4605469046726B7069316AB46A121A0D
:1033B000B069521A716A121AF069521A121A96F802
:1033C0003800141B41070DD4002C0BDD2746B068D4
:1033D0002021A8470028B06057D0F06A401C7F1E0B
:1033E000F062F4D1736942463146284600F0B0FCE1
:1033F00000284AD1376A002F0ADDB0683021A8477B
:103400000028B06041D0F06A401C7F1EF062F4D109
:10341000B369F2683146284600F09AFCA8BB776A87
:10342000002F09DDB0683021A847B06068B3F06AAA
:10343000401C7F1EF062F5D1F068B169F369421853
:103440003146284600F084FCF8B9B76A002F09DD40
:10345000B0683021A847B060B8B1F06A401C7F1E48
:10346000F062F5D196F8380041070BD5002C09DD44
:10347000B0682021A847B06038B1F06A401C641ED3
:10348000F062F5D10020BDE8F0814FF0FF30BDE8DB
:10349000F0812DE9F8470D46A3B02F6B002F0646AB
:1034A000904648BF6FF000470FF63C1401F06CFEE9
:1034B000D4E90023696B4018CDE90123812828BF96
:1034C0004FF0FF3042D20024002F33DDD8F8001037
:1034D00001AA684601F0F7FD8146B9F1000F38D422
:1034E000D8F8000010B9B9F1010932D44F4521DBF9
:1034F0006869484481280AD30021696303AA2946E0
:103500003046FFF74BFF040014D40020686103AB82
:10351000D5F814A04A46694603EB0A00FEF7BAFD47
:10352000CA44C5F814A058F8040B002818BFA7EB2C
:103530000907C9D14CB903AA29463046FFF72EFF27
:10354000044614B9002068616863204624B0BDE8D1
:10355000F0874FF0FF34F8E72DE9FC4707468C462B
:103560003E69BCF16F0F08BF082405D04CF0200065
:10357000782814BF0A2410243C25D7E90023BCF185
:10358000640F18BFBCF1690F9046994606D100211F
:103590008B4203DAD8F1000869EB49094FF0000AC1
:1035A000D14508BFD0451FD1386BE8B9082C4BD1A5
:1035B00097F83800010747D530203B2586F83B00B7
:1035C00042E000280ED597F8380000F014001028CB
:1035D00008D17B6B7969386A5B1A1B1A9A1A002A20
:1035E000C8BF3A62BDE8F3878DF800C0404649463F
:1035F0002246E31701F09CFB3032D0B26D1E3A2810
:10360000019504DB9DF80000A0F151018A18725564
:10361000404649462246E31701F08AFB8946804628
:10362000D14508BFD04503D0F86871198842DDD371
:10363000082C09D197F83800010705D5705D3028AE
:1036400002D06D1E30207055C5F13C02BA6171196F
:10365000F960386B8242B4DA821A3A624FF6EF7040
:10366000398F01403987BDE8F3872DE9D0430646FD
:103670000F4614464FF00008DFF8389412E0E007D8
:1036800007D542464B463046394601F083FD064693
:103690000F464046494642464B4601F07BFD6410CA
:1036A00080468946002CEAD130463946BDE8D083B1
:1036B0002DE9F34F054641F020048DB0D5E900898E
:1036C000612C02AE09D0286B002848BF062003D425
:1036D00008BF672C01D101202863D5E900235800D9
:1036E0004015401C0ED119030CD00320A8619DF891
:1036F000381061391A2902D20FF2F46111E00FF289
:10370000F4610EE059004915491C0FD118030DD181
:103710000320A8619DF8381061391A2914D30FF2DB
:10372000DC61E8680322FEF7B5FCD3E1194621F01D
:103730000043B3F5801F10460DD20027BB4208BFDF
:10374000BA42019703D111E00FF2AC61E9E701AA97
:1037500001F0F2FD0AE0DFF8607307EB1352DFF8C7
:103760005C3301921940DFF858331943C5E9000171
:10377000612C0ED1E86830210170821CEA609DF84E
:10378000381061290CBF7821582141706869801C6C
:103790006861D5E900AB2BF0004300202AF000025D
:1037A000834204BF8242002300F05B81612C40F021
:1037B000AA80286B002847BF21210091401C00905F
:1037C000009F7F1C404649460022002301F0ECFD8B
:1037D000D94601998DF8082038BF89F00049091FA2
:1037E000002FD04601910DF1090040F34981B34902
:1037F000DFF8D0B20C91064640464946002200232D
:1038000001F0EAFD80F03B814800400D00F11C0210
:1038100011D0002A0FDD40F2FF70824205DB09F073
:10382000004040EA0B01002013E00C98014041EAFF
:10383000025140460DE029F00043002028F000022C
:10384000834208BF82420FBF40461C22404601F01F
:10385000DBFD8046894601F075FEFF1F002F044600
:1038600009DD01F08DFE02460B464046494601F057
:1038700099FE80468946F01D072104E004F00F02FE
:1038800000F8012D2411002C01DD491EF6D5491E3A
:103890005CBF002200F8012DF9D5ECE000201946AC
:1038A00002AA0A4400E05B1E12F80149491E844244
:1038B000F9D00F2804D10DF10900425C521C42548A
:1038C000002904D50198001D02AE5B1C0190591E11
:1038D00012D49DF838007218A0F13A0714780/* ---------------------------------------------------------------------------- */
/*                  Atmel Microcontroller Software Support                      */
/*                       SAM Software Package License                           */
/* ---------------------------------------------------------------------------- */
/* Copyright (c) %copyright_year%, Atmel Corporation                                        */
/*                                                                              */
/* All rights reserved.                                                         */
/*                                                                              */
/* Redistribution and use in source and binary forms, with or without           */
/* modification, are permitted provided that the following condition is met:    */
/*                                                                              */
/* - Redistributions of source code must retain the above copyright notice,     */
/* this list of conditions and the disclaimer below.                            */
/*                                                                              */
/* Atmel's name may not be used to endorse or promote products derived from     */
/* this software without specific prior written permission.                     */
/*                                                                              */
/* DISCLAIMER:  THIS SOFTWARE IS PROVIDED BY ATMEL "AS IS" AND ANY EXPRESS OR   */
/* IMPLIED WARRANTIES, INCLUDING, BUT NOT LIMITED TO, THE IMPLIED WARRANTIES OF */
/* MERCHANTABILITY, FITNESS FOR A PARTICULAR PURPOSE AND NON-INFRINGEMENT ARE   */
/* DISCLAIMED. IN NO EVENT SHALL ATMEL BE LIABLE FOR ANY DIRECT, INDIRECT,      */
/* INCIDENTAL, SPECIAL, EXEMPLARY, OR CONSEQUENTIAL DAMAGES (INCLUDING, BUT NOT */
/* LIMITED TO, PROCUREMENT OF SUBSTITUTE GOODS OR SERVICES; LOSS OF USE, DATA,  */
/* OR PROFITS; OR BUSINESS INTERRUPTION) HOWEVER CAUSED AND ON ANY THEORY OF    */
/* LIABILITY, WHETHER IN CONTRACT, STRICT LIABILITY, OR TORT (INCLUDING         */
/* NEGLIGENCE OR OTHERWISE) ARISING IN ANY WAY OUT OF THE USE OF THIS SOFTWARE, */
/* EVEN IF ADVISED OF THE POSSIBILITY OF SUCH DAMAGE.                           */
/* ---------------------------------------------------------------------------- */

#ifndef _SAM3SD8B_
#define _SAM3SD8B_

/** \addtogroup SAM3SD8B_definitions SAM3SD8B definitions
  This file defines all structures and symbols for SAM3SD8B:
    - registers and bitfields
    - peripheral base address
    - peripheral ID
    - PIO definitions
*/
/*@{*/

#ifdef __cplusplus
 extern "C" {
#endif 

#if !(defined(__ASSEMBLY__) || defined(__IAR_SYSTEMS_ASM__))
#include <stdint.h>
#endif

/* ************************************************************************** */
/*   CMSIS DEFINITIONS FOR SAM3SD8B */
/* ************************************************************************** */
/** \addtogroup SAM3SD8B_cmsis CMSIS Definitions */
/*@{*/

/**< Interrupt Number Definition */
typedef enum IRQn
{
/******  Cortex-M3 Processor Exceptions Numbers ******************************/
  NonMaskableInt_IRQn   = -14, /**<  2 Non Maskable Interrupt                */
  MemoryManagement_IRQn = -12, /**<  4 Cortex-M3 Memory Management Interrupt */
  BusFault_IRQn         = -11, /**<  5 Cortex-M3 Bus Fault Interrupt         */
  UsageFault_IRQn       = -10, /**<  6 Cortex-M3 Usage Fault Interrupt       */
  SVCall_IRQn           = -5,  /**< 11 Cortex-M3 SV Call Interrupt           */
  DebugMonitor_IRQn     = -4,  /**< 12 Cortex-M3 Debug Monitor Interrupt     */
  PendSV_IRQn           = -2,  /**< 14 Cortex-M3 Pend SV Interrupt           */
  SysTick_IRQn          = -1,  /**< 15 Cortex-M3 System Tick Interrupt       */
/******  SAM3SD8B specific Interrupt Numbers *********************************/
  
  SUPC_IRQn            =  0, /**<  0 SAM3SD8B Supply Controller (SUPC) */
  RSTC_IRQn            =  1, /**<  1 SAM3SD8B Reset Controller (RSTC) */
  RTC_IRQn             =  2, /**<  2 SAM3SD8B Real Time Clock (RTC) */
  RTT_IRQn             =  3, /**<  3 SAM3SD8B Real Time Timer (RTT) */
  WDT_IRQn             =  4, /**<  4 SAM3SD8B Watchdog Timer (WDT) */
  PMC_IRQn             =  5, /**<  5 SAM3SD8B Power Management Controller (PMC) */
  EFC_IRQn             =  6, /**<  6 SAM3SD8B Enhanced Embedded Flash Controller (EFC) */
  UART0_IRQn           =  8, /**<  8 SAM3SD8B UART 0 (UART0) */
  UART1_IRQn           =  9, /**<  9 SAM3SD8B UART 1 (UART1) */
  PIOA_IRQn            = 11, /**< 11 SAM3SD8B Parallel I/O Controller A (PIOA) */
  PIOB_IRQn            = 12, /**< 12 SAM3SD8B Parallel I/O Controller B (PIOB) */
  USART0_IRQn          = 14, /**< 14 SAM3SD8B USART 0 (USART0) */
  USART1_IRQn          = 15, /**< 15 SAM3SD8B USART 1 (USART1) */
  HSMCI_IRQn           = 18, /**< 18 SAM3SD8B Multimedia Card Interface (HSMCI) */
  TWI0_IRQn            = 19, /**< 19 SAM3SD8B Two Wire Interface 0 (TWI0) */
  TWI1_IRQn            = 20, /**< 20 SAM3SD8B Two Wire Interface 1 (TWI1) */
  SPI_IRQn             = 21, /**< 21 SAM3SD8B Serial Peripheral Interface (SPI) */
  SSC_IRQn             = 22, /**< 22 SAM3SD8B Synchronous Serial Controler (SSC) */
  TC0_IRQn             = 23, /**< 23 SAM3SD8B Timer/Counter 0 (TC0) */
  TC1_IRQn             = 24, /**< 24 SAM3SD8B Timer/Counter 1 (TC1) */
  TC2_IRQn             = 25, /**< 25 SAM3SD8B Timer/Counter 2 (TC2) */
  ADC_IRQn             = 29, /**< 29 SAM3SD8B Analog To Digital Converter (ADC) */
  DACC_IRQn            = 30, /**< 30 SAM3SD8B Digital To Analog Converter (DACC) */
  PWM_IRQn             = 31, /**< 31 SAM3SD8B Pulse Width Modulation (PWM) */
  CRCCU_IRQn           = 32, /**< 32 SAM3SD8B CRC Calculation Unit (CRCCU) */
  ACC_IRQn             = 33, /**< 33 SAM3SD8B Analog Comparator (ACC) */
  UDP_IRQn             = 34, /**< 34 SAM3SD8B USB Device Port (UDP) */

  PERIPH_COUNT_IRQn    = 35  /**< Number of peripheral IDs */
} IRQn_Type;

typedef struct _DeviceVectors
{
  /* Stack pointer */
  void* pvStack;
  
  /* Cortex-M handlers */
  void* pfnReset_Handler;
  void* pfnNMI_Handler;
  void* pfnHardFault_Handler;
  void* pfnMemManage_Handler;
  void* pfnBusFault_Handler;
  void* pfnUsageFault_Handler;
  void* pfnReserved1_Handler;
  void* pfnReserved2_Handler;
  void* pfnReserved3_Handler;
  void* pfnReserved4_Handler;
  void* pfnSVC_Handler;
  void* pfnDebugMon_Handler;
  void* pfnReserved5_Handler;
  void* pfnPendSV_Handler;
  void* pfnSysTick_Handler;

  /* Peripheral handlers */
  void* pfnSUPC_Handler;   /*  0 Supply Controller */
  void* pfnRSTC_Handler;   /*  1 Reset Controller */
  void* pfnRTC_Handler;    /*  2 Real Time Clock */
  void* pfnRTT_Handler;    /*  3 Real Time Timer */
  void* pfnWDT_Handler;    /*  4 Watchdog Timer */
  void* pfnPMC_Handler;    /*  5 Power Management Controller */
  void* pfnEFC_Handler;    /*  6 Enhanced Embedded Flash Controller */
  void* pvReserved7;
  void* pfnUART0_Handler;  /*  8 UART 0 */
  void* pfnUART1_Handler;  /*  9 UART 1 */
  void* pvReserved10;
  void* pfnPIOA_Handler;   /* 11 Parallel I/O Controller A */
  void* pfnPIOB_Handler;   /* 12 Parallel I/O Controller B */
  void* pvReserved13;
  void* pfnUSART0_Handler; /* 14 USART 0 */
  void* pfnUSART1_Handler; /* 15 USART 1 */
  void* pvReserved16;
  void* pvReserved17;
  void* pfnHSMCI_Handler;  /* 18 Multimedia Card Interface */
  void* pfnTWI0_Handler;   /* 19 Two Wire Interface 0 */
  void* pfnTWI1_Handler;   /* 20 Two Wire Interface 1 */
  void* pfnSPI_Handler;    /* 21 Serial Peripheral Interface */
  void* pfnSSC_Handler;    /* 22 Synchronous Serial Controler */
  void* pfnTC0_Handler;    /* 23 Timer/Counter 0 */
  void* pfnTC1_Handler;    /* 24 Timer/Counter 1 */
  void* pfnTC2_Handler;    /* 25 Timer/Counter 2 */
  void* pvReserved26;
  void* pvReserved27;
  void* pvReserved28;
  void* pfnADC_Handler;    /* 29 Analog To Digital Converter */
  void* pfnDACC_Handler;   /* 30 Digital To Analog Converter */
  void* pfnPWM_Handler;    /* 31 Pulse Width Modulation */
  void* pfnCRCCU_Handler;  /* 32 CRC Calculation Unit */
  void* pfnACC_Handler;    /* 33 Analog Comparator */
  void* pfnUDP_Handler;    /* 34 USB Device Port */
} DeviceVectors;

/* Cortex-M3 core handlers */
void Reset_Handler      ( void );
void NMI_Handler        ( void );
void HardFault_Handler  ( void );
void MemManage_Handler  ( void );
void BusFault_Handler   ( void );
void UsageFault_Handler ( void );
void SVC_Handler        ( void );
void DebugMon_Handler   ( void );
void PendSV_Handler     ( void );
void SysTick_Handler    ( void );

/* Peripherals handlers */
void ACC_Handler        ( void );
void ADC_Handler        ( void );
void CRCCU_Handler      ( void );
void DACC_Handler       ( void );
void EFC_Handler        ( void );
void HSMCI_Handler      ( void );
void PIOA_Handler       ( void );
void PIOB_Handler       ( void );
void PMC_Handler        ( void );
void PWM_Handler        ( void );
void RSTC_Handler       ( void );
void RTC_Handler        ( void );
void RTT_Handler        ( void );
void SPI_Handler        ( void );
void SSC_Handler        ( void );
void SUPC_Handler       ( void );
void TC0_Handler        ( void );
void TC1_Handler        ( void );
void TC2_Handler        ( void );
void TWI0_Handler       ( void );
void TWI1_Handler       ( void );
void UART0_Handler      ( void );
void UART1_Handler      ( void );
void UDP_Handler        ( void );
void USART0_Handler     ( void );
void USART1_Handler     ( void );
void WDT_Handler        ( void );

/**
 * \brief Configuration of the Cortex-M3 Processor and Core Peripherals 
 */

#define __CM3_REV              0x0200 /**< SAM3SD8B core revision number ([15:8] revision number, [7:0] patch number) */
#define __MPU_PRESENT          1      /**< SAM3SD8B does provide a MPU */
#define __NVIC_PRIO_BITS       4      /**< SAM3SD8B uses 4 Bits for the Priority Levels */
#define __Vendor_SysTickConfig 0      /**< Set to 1 if different SysTick Config is used */

/*
 * \brief CMSIS includes
 */

#include <core_cm3.h>
#if !defined DONT_USE_CMSIS_INIT
#include "system_sam3sd8.h"
#endif /* DONT_USE_CMSIS_INIT */

/*@}*/

/* ************************************************************************** */
/**  SOFTWARE PERIPHERAL API DEFINITION FOR SAM3SD8B */
/* ************************************************************************** */
/** \addtogroup SAM3SD8B_api Peripheral Software API */
/*@{*/

#include "component/acc.h"
#include "component/adc.h"
#include "component/chipid.h"
#include "component/crccu.h"
#include "component/dacc.h"
#include "component/efc.h"
#include "component/gpbr.h"
#include "component/hsmci.h"
#include "component/matrix.h"
#include "component/pdc.h"
#include "component/pio.h"
#include "component/pmc.h"
#include "component/pwm.h"
#include "component/rstc.h"
#include "component/rtc.h"
#include "component/rtt.h"
#include "component/spi.h"
#include "component/ssc.h"
#include "component/supc.h"
#include "component/tc.h"
#include "component/twi.h"
#include "component/uart.h"
#include "component/udp.h"
#include "component/usart.h"
#include "component/wdt.h"
/*@}*/

/* ************************************************************************** */
/*   REGISTER ACCESS DEFINITIONS FOR SAM3SD8B */
/* ************************************************************************** */
/** \addtogroup SAM3SD8B_reg Registers Access Definitions */
/*@{*/

#include "instance/hsmci.h"
#include "instance/ssc.h"
#include "instance/spi.h"
#include "instance/tc0.h"
#include "instance/twi0.h"
#include "instance/twi1.h"
#include "instance/pwm.h"
#include "instance/usart0.h"
#include "instance/usart1.h"
#include "instance/udp.h"
#include "instance/adc.h"
#include "instance/dacc.h"
#include "instance/acc.h"
#include "instance/crccu.h"
#include "instance/matrix.h"
#include "instance/pmc.h"
#include "instance/uart0.h"
#include "instance/chipid.h"
#include "instance/uart1.h"
#include "instance/efc.h"
#include "instance/pioa.h"
#include "instance/piob.h"
#include "instance/rstc.h"
#include "instance/supc.h"
#include "instance/rtt.h"
#include "instance/wdt.h"
#include "instance/rtc.h"
#include "instance/gpbr.h"
/*@}*/

/* ************************************************************************** */
/*   PERIPHERAL ID DEFINITIONS FOR SAM3SD8B */
/* ************************************************************************** */
/** \addtogroup SAM3SD8B_id Peripheral Ids Definitions */
/*@{*/

#define ID_SUPC   ( 0) /**< \brief Supply Controller (SUPC) */
#define ID_RSTC   ( 1) /**< \brief Reset Controller (RSTC) */
#define ID_RTC    ( 2) /**< \brief Real Time Clock (RTC) */
#define ID_RTT    ( 3) /**< \brief Real Time Timer (RTT) */
#define ID_WDT    ( 4) /**< \brief Watchdog Timer (WDT) */
#define ID_PMC    ( 5) /**< \brief Power Management Controller (PMC) */
#define ID_EFC    ( 6) /**< \brief Enhanced Embedded Flash Controller (EFC) */
#define ID_UART0  ( 8) /**< \brief UART 0 (UART0) */
#define ID_UART1  ( 9) /**< \brief UART 1 (UART1) */
#define ID_PIOA   (11) /**< \brief Parallel I/O Controller A (PIOA) */
#define ID_PIOB   (12) /**< \brief Parallel I/O Controller B (PIOB) */
#define ID_USART0 (14) /**< \brief USART 0 (USART0) */
#define ID_USART1 (15) /**< \brief USART 1 (USART1) */
#define ID_HSMCI  (18) /**< \brief Multimedia Card Interface (HSMCI) */
#define ID_TWI0   (19) /**< \brief Two Wire Interface 0 (TWI0) */
#define ID_TWI1   (20) /**< \brief Two Wire Interface 1 (TWI1) */
#define ID_SPI    (21) /**< \brief Serial Peripheral Interface (SPI) */
#define ID_SSC    (22) /**< \brief Synchronous Serial Controler (SSC) */
#define ID_TC0    (23) /**< \brief Timer/Counter 0 (TC0) */
#define ID_TC1    (24) /**< \brief Timer/Counter 1 (TC1) */
#define ID_TC2    (25) /**< \brief Timer/Counter 2 (TC2) */
#define ID_ADC    (29) /**< \brief Analog To Digital Converter (ADC) */
#define ID_DACC   (30) /**< \brief Digital To Analog Converter (DACC) */
#define ID_PWM    (31) /**< \brief Pulse Width Modulation (PWM) */
#define ID_CRCCU  (32) /**< \brief CRC Calculation Unit (CRCCU) */
#define ID_ACC    (33) /**< \brief Analog Comparator (ACC) */
#define ID_UDP    (34) /**< \brief USB Device Port (UDP) */

#define ID_PERIPH_COUNT (35) /**< \brief Number of peripheral IDs */
/*@}*/

/* ************************************************************************** */
/*   BASE ADDRESS DEFINITIONS FOR SAM3SD8B */
/* ************************************************************************** */
/** \addtogroup SAM3SD8B_base Peripheral Base Address Definitions */
/*@{*/

#if (defined(__ASSEMBLY__) || defined(__IAR_SYSTEMS_ASM__))
#define HSMCI      (0x40000000U) /**< \brief (HSMCI     ) Base Address */
#define PDC_HSMCI  (0x40000100U) /**< \brief (PDC_HSMCI ) Base Address */
#define SSC        (0x40004000U) /**< \brief (SSC       ) Base Address */
#define PDC_SSC    (0x40004100U) /**< \brief (PDC_SSC   ) Base Address */
#define SPI        (0x40008000U) /**< \brief (SPI       ) Base Address */
#define PDC_SPI    (0x40008100U) /**< \brief (PDC_SPI   ) Base Address */
#define TC0        (0x40010000U) /**< \brief (TC0       ) Base Address */
#define TWI0       (0x40018000U) /**< \brief (TWI0      ) Base Address */
#define PDC_TWI0   (0x40018100U) /**< \brief (PDC_TWI0  ) Base Address */
#define TWI1       (0x4001C000U) /**< \brief (TWI1      ) Base Address */
#define PDC_TWI1   (0x4001C100U) /**< \brief (PDC_TWI1  ) Base Address */
#define PWM        (0x40020000U) /**< \brief (PWM       ) Base Address */
#define PDC_PWM    (0x40020100U) /**< \brief (PDC_PWM   ) Base Address */
#define USART0     (0x40024000U) /**< \brief (USART0    ) Base Address */
#define PDC_USART0 (0x40024100U) /**< \brief (PDC_USART0) Base Address */
#define USART1     (0x40028000U) /**< \brief (USART1    ) Base Address */
#define PDC_USART1 (0x40028100U) /**< \brief (PDC_USART1) Base Address */
#define UDP        (0x40034000U) /**< \brief (UDP       ) Base Address */
#define ADC        (0x40038000U) /**< \brief (ADC       ) Base Address */
#define PDC_ADC    (0x40038100U) /**< \brief (PDC_ADC   ) Base Address */
#define DACC       (0x4003C000U) /**< \brief (DACC      ) Base Address */
#define PDC_DACC   (0x4003C100U) /**< \brief (PDC_DACC  ) Base Address */
#define ACC        (0x40040000U) /**< \brief (ACC       ) Base Address */
#define CRCCU      (0x40044000U) /**< \brief (CRCCU     ) Base Address */
#define MATRIX     (0x400E0200U) /**< \brief (MATRIX    ) Base Address */
#define PMC        (0x400E0400U) /**< \brief (PMC       ) Base Address */
#define UART0      (0x400E0600U) /**< \brief (UART0     ) Base Address */
#define PDC_UART0  (0x400E0700U) /**< \brief (PDC_UART0 ) Base Address */
#define CHIPID     (0x400E0740U) /**< \brief (CHIPID    ) Base Address */
#define UART1      (0x400E0800U) /**< \brief (UART1     ) Base Address */
#define PDC_UART1  (0x400E0900U) /**< \brief (PDC_UART1 ) Base Address */
#define EFC        (0x400E0A00U) /**< \brief (EFC       ) Base Address */
#define PIOA       (0x400E0E00U) /**< \brief (PIOA      ) Base Address */
#define PDC_PIOA   (0x400E0F68U) /**< \brief (PDC_PIOA  ) Base Address */
#define PIOB       (0x400E1000U) /**< \brief (PIOB      ) Base Address */
#define RSTC       (0x400E1400U) /**< \brief (RSTC      ) Base Address */
#define SUPC       (0x400E1410U) /**< \brief (SUPC      ) Base Address */
#define RTT        (0x400E1430U) /**< \brief (RTT       ) Base Address */
#define WDT        (0x400E1450U) /**< \brief (WDT       ) Base Address */
#define RTC        (0x400E1460U) /**< \brief (RTC       ) Base Address */
#define GPBR       (0x400E1490U) /**< \brief (GPBR      ) Base Address */
#else
#define HSMCI      ((Hsmci  *)0x40000000U) /**< \brief (HSMCI     ) Base Address */
#define PDC_HSMCI  ((Pdc    *)0x40000100U) /**< \brief (PDC_HSMCI ) Base Address */
#define SSC        ((Ssc    *)0x40004000U) /**< \brief (SSC       ) Base Address */
#define PDC_SSC    ((Pdc    *)0x40004100U) /**< \brief (PDC_SSC   ) Base Address */
#define SPI        ((Spi    *)0x40008000U) /**< \brief (SPI       ) Base Address */
#define PDC_SPI    ((Pdc    *)0x40008100U) /**< \brief (PDC_SPI   ) Base Address */
#define TC0        ((Tc     *)0x40010000U) /**< \brief (TC0       ) Base Address */
#define TWI0       ((Twi    *)0x40018000U) /**< \brief (TWI0      ) Base Address */
#define PDC_TWI0   ((Pdc    *)0x40018100U) /**< \brief (PDC_TWI0  ) Base Address */
#define TWI1       ((Twi    *)0x4001C000U) /**< \brief (TWI1      ) Base Address */
#define PDC_TWI1   ((Pdc    *)0x4001C100U) /**< \brief (PDC_TWI1  ) Base Address */
#define PWM        ((Pwm    *)0x40020000U) /**< \brief (PWM       ) Base Address */
#define PDC_PWM    ((Pdc    *)0x40020100U) /**< \brief (PDC_PWM   ) Base Address */
#define USART0     ((Usart  *)0x40024000U) /**< \brief (USART0    ) Base Address */
#define PDC_USART0 ((Pdc    *)0x40024100U) /**< \brief (PDC_USART0) Base Address */
#define USART1     ((Usart  *)0x40028000U) /**< \brief (USART1    ) Base Address */
#define PDC_USART1 ((Pdc    *)0x40028100U) /**< \brief (PDC_USART1) Base Address */
#define UDP        ((Udp    *)0x40034000U) /**< \brief (UDP       ) Base Address */
#define ADC        ((Adc    *)0x40038000U) /**< \brief (ADC       ) Base Address */
#define PDC_ADC    ((Pdc    *)0x40038100U) /**< \brief (PDC_ADC   ) Base Address */
#define DACC       ((Dacc   *)0x4003C000U) /**< \brief (DACC      ) Base Address */
#define PDC_DACC   ((Pdc    *)0x4003C100U) /**< \brief (PDC_DACC  ) Base Address */
#define ACC        ((Acc    *)0x40040000U) /**< \brief (ACC       ) Base Address */
#define CRCCU      ((Crccu  *)0x40044000U) /**< \brief (CRCCU     ) Base Address */
#define MATRIX     ((Matrix *)0x400E0200U) /**< \brief (MATRIX    ) Base Address */
#define PMC        ((Pmc    *)0x400E0400U) /**< \brief (PMC       ) Base Address */
#define UART0      ((Uart   *)0x400E0600U) /**< \brief (UART0     ) Base Address */
#define PDC_UART0  ((Pdc    *)0x400E0700U) /**< \brief (PDC_UART0 ) Base Address */
#define CHIPID     ((Chipid *)0x400E0740U) /**< \brief (CHIPID    ) Base Address */
#define UART1      ((Uart   *)0x400E0800U) /**< \brief (UART1     ) Base Address */
#define PDC_UART1  ((Pdc    *)0x400E0900U) /**< \brief (PDC_UART1 ) Base Address */
#define EFC        ((Efc    *)0x400E0A00U) /**< \brief (EFC       ) Base Address */
#define PIOA       ((Pio    *)0x400E0E00U) /**< \brief (PIOA      ) Base Address */
#define PDC_PIOA   ((Pdc    *)0x400E0F68U) /**< \brief (PDC_PIOA  ) Base Address */
#define PIOB       ((Pio    *)0x400E1000U) /**< \brief (PIOB      ) Base Address */
#define RSTC       ((Rstc   *)0x400E1400U) /**< \brief (RSTC      ) Base Address */
#define SUPC       ((Supc   *)0x400E1410U) /**< \brief (SUPC      ) Base Address */
#define RTT        ((Rtt    *)0x400E1430U) /**< \brief (RTT       ) Base Address */
#define WDT        ((Wdt    *)0x400E1450U) /**< \brief (WDT       ) Base Address */
#define RTC        ((Rtc    *)0x400E1460U) /**< \brief (RTC       ) Base Address */
#define GPBR       ((Gpbr   *)0x400E1490U) /**< \brief (GPBR      ) Base Address */
#endif /* (defined(__ASSEMBLY__) || defined(__IAR_SYSTEMS_ASM__)) */
/*@}*/

/* ************************************************************************** */
/*   PIO DEFINITIONS FOR SAM3SD8B */
/* ************************************************************************** */
/** \addtogroup SAM3SD8B_pio Peripheral Pio Definitions */
/*@{*/

#include "pio/sam3sd8b.h"
/*@}*/

/* ************************************************************************** */
/*   MEMORY MAPPING DEFINITIONS FOR SAM3SD8B */
/* ************************************************************************** */

#define IFLASH0_SIZE             (0x40000u)
#define IFLASH0_PAGE_SIZE        (256u)
#define IFLASH0_LOCK_REGION_SIZE (16384u)
#define IFLASH0_NB_OF_PAGES      (1024u)
#define IFLASH0_NB_OF_LOCK_BITS  (16u)
#define IFLASH1_SIZE             (0x40000u)
#define IFLASH1_PAGE_SIZE        (256u)
#define IFLASH1_LOCK_REGION_SIZE (16384u)
#define IFLASH1_NB_OF_PAGES      (1024u)
#define IFLASH1_NB_OF_LOCK_BITS  (16u)
#define IRAM_SIZE                (0x10000u)
#define IFLASH_SIZE              (IFLASH0_SIZE+IFLASH1_SIZE)

#define IFLASH0_ADDR (0x00400000u) /**< Internal Flash 0 base address */
#if defined IFLASH0_SIZE
#define IFLASH1_ADDR (IFLASH0_ADDR+IFLASH0_SIZE) /**< Internal Flash 1 base address */
#endif
#define IFLASH0_ADDR (0x00400000u) /**< Internal Flash 0 base address */
#define IROM_ADDR    (0x00800000u) /**< Internal ROM base address */
#if defined IFLASH0_SIZE
#define IFLASH1_ADDR (IFLASH0_ADDR+IFLASH0_SIZE) /**< Internal Flash 1 base address */
#endif
#define IRAM_ADDR    (0x20000000u) /**< Internal RAM base address */
#define EBI_CS0_ADDR (0x60000000u) /**< EBI Chip Select 0 base address */
#define EBI_CS1_ADDR (0x61000000u) /**< EBI Chip Select 1 base address */
#define EBI_CS2_ADDR (0x62000000u) /**< EBI Chip Select 2 base address */
#define EBI_CS3_ADDR (0x63000000u) /**< EBI Chip Select 3 base address */

/* ************************************************************************** */
/*   MISCELLANEOUS DEFINITIONS FOR SAM3SD8B */
/* ************************************************************************** */

#define CHIP_JTAGID       (0x05B2D03FUL)
#define CHIP_CIDR         (0x299B0A60UL)
#define CHIP_EXID         (0x0UL)
#define NB_CH_ADC         (10UL)
#define NB_CH_DAC         (2UL)
#define USB_DEVICE_MAX_EP (8UL)

/* ************************************************************************** */
/*   ELECTRICAL DEFINITIONS FOR SAM3SD8B */
/* ************************************************************************** */

/* Device characteristics */
#define CHIP_FREQ_SLCK_RC_MIN           (20000UL)
#define CHIP_FREQ_SLCK_RC               (32000UL)
#define CHIP_FREQ_SLCK_RC_MAX           (44000UL)
#define CHIP_FREQ_MAINCK_RC_4MHZ        (4000000UL)
#define CHIP_FREQ_MAINCK_RC_8MHZ        (8000000UL)
#define CHIP_FREQ_MAINCK_RC_12MHZ       (12000000UL)
#define CHIP_FREQ_CPU_MAX               (64000000UL)
#define CHIP_FREQ_XTAL_32K              (32768UL)
#define CHIP_FREQ_XTAL_12M              (12000000UL)

/* Embedded Flash Write Wait State */
#define CHIP_FLASH_WRITE_WAIT_STATE     (6U)

/* Embedded Flash Read Wait State (VDDCORE set at 1.65V) */
#define CHIP_FREQ_FWS_0                 (21000000UL) /**< \brief Maximum operating frequency when FWS is 0 */
#define CHIP_FREQ_FWS_1                 (35000000UL) /**< \brief Maximum operating frequency when FWS is 1 */
#define CHIP_FREQ_FWS_2                 (60000000UL) /**< \brief Maximum operating frequency when FWS is 2 */
#define CHIP_FREQ_FWS_3                 (64000000UL) /**< \brief Maximum operating frequency when FWS is 3 */

/* HYSTeresis levels: please refer to Electrical Characteristics */
#define ACC_ACR_HYST_50MV_MAX	          (0x01UL)
#define ACC_ACR_HYST_90MV_MAX           (0x11UL)

#ifdef __cplusplus
}
#endif

/*@}*/

#endif /* _SAM3SD8B_ */
                                                                                                                  È‘¸û¶!çNØbˇ¥ñ!·⁄F÷‰À¥,G‹•n Ë∞˙J∆˚cÒ)+˘µå˜C£Kù¥˙¥Ì°‚;.;rå“Q´ƒ,0·¸UK¢Où^
"ntkSüÉÂÑ\CdZ qv¥%$∑\…Ú
p#ﬂá™.%X12!r4ë¬â|“ˆgà…y•ÑÁ5Uä˘oÏD¥1·TC\F°ËOÚƒH‰ÆÄnΩ{∂µ>ˇ#˜àÒ"KË€Sÿ¥:UÃ¯D•&∞´Á7?à@¥¸©Ú;z,°Å7πΩ E´SNo5˜BÑz∏•_áô¯ﬁÉ∏kÜp¥÷ÒÜ& ºi†ˇ≤ˇxj‡kD%5Ún	ß¬ç•ùs◊Eóñ¬Q'§ˇ'¯ç¢Dn\á¸Æ—0én∏¶Ê<l’ÙF≤R}Z⁄
TÅGÈùvê§ ÁD⁄K∏ËÃ|yØÅ¨Næiî$ñõîó] cƒﬂ◊∑ëj∂¶ä)πY}Œ8˜úé }‡∑2{Êè	æö—˚ÈGY~wΩ-ıR≤†˚√0ws›ı n˘\ÊzôC>’˘≠≤‹Å {õíñ¢‘Óºº∫ 2∫êŸºøâì√Å5]ém__Q$πïÎug¨çe·ôŸy’§+GJ5Ò‹¥Ì&áÀ
$oxû{;_V¯ÍÇöæg=¬¨^tk∫» Qåæ»dÃ‚TR‹iøö.∆VÎÔ-ÑxòkΩ ‹é˘ùaÀ¶H)Ø‘'¬-ßc"=£h≈ºªçdÃx;$uÜ.á¶¡E<ZÆÈ h:ÛπÑ{Ågºø8ø·àLbfo;M–Ø~á:	]AáœçgÛ∆¸-æÔù∫õÏ”
–€≤‚,Q≈≈ñ˘ñ4ˇÊ8 Qèy.0±¬‚;lÍ´gG„èZAê»∆zÀNä®îı‹òE◊–•Q)Öô∑õŒXi¥deoizùµêKÏÃ+Éu8/OQ”ßpÄ-}BÁÃEÙπéùãñ›îN(0/Ël/ˇ+˜
â›≥ä⁄®∫98/-µdEg§ÜT™aJeK⁄Ÿuuˆ”‰˜Úé.
÷ `„˘‡üÏa´PÜn‚¡eS¥4Øíöl∆)'ªyB∆ÎöØuïû¢U|ÎRº—”[C¢´L W æ±µ›«P¯"s§Óê∫ªaëÒ—ú@4£⁄Ìﬂâ›¸2ú§¢ZëÀ0›çï4>XæÑ»;˜
W¿GÖú8 5_ƒü∂Ú}VDè7/°ﬂœvdÄ…TÂ)~öt«⁄Çw∑1˝˚.VÄÈ+’∏ë¬Sq&É ˇÎò7¶∑x‚t∫`¶ Bh6i>Sœp
◊å0G7bõŒœ•ºeÆs.U1—Óñ⁄iq1hJÍÔ¥ÌjAûπÒ:aá)ƒTãÃ&ƒdPQ`∂Ïc™ù7#/Û£zRîª¡@l…\|˙]˝©¯æ˚˛Î‚4mæÒOìÁ›–úAå›Cu#3)è‰ÊbzÆuÈ;ÌÄæÉï?W=ú0JŸ∑?ΩVôt€-_’æs/˘˜è•åÍVç°{æ1aÖ⁄Â›Æ™õÔj.ú=DáßÊè≈Ã£¯°;ÇÌËFW~Üí:!“◊<R≤LÒÔ√w)ó-„’√Â£µ›;Ó≠zv˜Ô˛§◊óEÕ∑aîú$'êû®g#‰æe’“≠}≥UT›ùˇπ*ﬁπk[yrhƒ%‡:Á∫ñ¥õëDÿ&´b0kF0uC°&Täit®_lﬂÍÅÕIÀ∏;„¿•QÑ¡ ©ˇ¿˜∏¸°è+∏Pı˝≥eÿe¯GZÈ µÌª∆/V~kíHSEJº*70Öw∞9Pbp]Ã8üì3â¸Ê#T∑⁄ı/± S˙Kì≈Œ6øòj;è @&≠çÂ%4≈í:•@¸?x®-â±-°îzJªŒàŒûvÌÚÂ\„‚sv^Î‰‘a2¸ GtèXƒˆç8ÿ∑WH…Ñ¿H;ÏR¯EÇì,3€Q_A33®yıvìûõ]Á≤˚8∆„‹´À* cÿL÷{ô$!∫∏VÑ>®Â-E	çÍf ôúÈ”∆6loS‘H“Ó…bîÎôG……Æ«jYæp‰¶pcYM,˛g£¸YæÀã$RóÊgÿ7&ïÀ’—Ùu-}¬˜€Øî‡∏™N·T{öL˘ºÔY˝…AÎ&dì∫çÄ›5’;#{ˇVÉíóy]•$¯*'ßﬁ¶°sRôÔ©Éƒke)$a›ÛdV#ÈY&”$_œˆHÿ¬G\jò¢Í{É¿u∆!—>‹	§‹oI6…€TZü˛SçÙ!{}µ™p∂Ç eﬁøû≤ΩTß›œûF9ØªE/QúÇ¯…êÄ¸Ë™Ú(◊ﬂ4`c˛|°€¡¡⁄#¶‘Öa¡eoô(ôS0‡Œ2„¥LÓ>ˆ¨GΩ”Z§ ¶î80*?˛≤µhé-lóO£2m™k4@ìÅoJ¥e#˚rxm≠úV5ñ,ÖÌ<>»~Ò¢Vt˜Ç/o\ò±˙‹®„Ú´\6goà≈#®¨ò≤KçΩ	3≈ÉéØ[∫.Álæƒªô'”D‹‹jÁ2ˆîüºò©>x%â’@‹NYπ€;j∂mKä/lªëòü0≠È¡‚âº{•ed”JM˚æ‰H¨òmKZÛÁñØ™	˙ûÖ›(Â£‰(Ù¯†‰TÍØ;E$¡~Ó>¯!–¨§¸‚˙pìÉswcÔ3uJR>ƒ-ìÚrÆ
,sôAï+ˇz©ÍÆùÎgE•˜‹÷¥Gü 2∆R4˙”Ñ[/Vmëé:íÙ≠¿ J9˝ÄÓ„:øcªB∆RuWÍÌÁ)¡qXÈw Zmƒò˜ÂH∫Ök™åµwcºCvCo!8ºC®ìñ$g¸DJ7?`<Îl¡Û8°ë$WµµÉ{dff»ôhÇÑ≤„ÊG¨~Ú^„ó⁄[/)	Éâ‡˙oÀãÎÜŒåD≈∏Ô+ú4fZ›Z»
†”åiq!·£kÉ_ïsÖóG™J˚„3¸N93ÈÒsÙAbDrÊﬂé¢ë±én»íÌDvÛª„î`ﬁgÒPÈ$Ûl‡Fé=$v9y:™"—·◊QÊw‚é´k+ÙáIæmçPtó|æ§J.ªÑ-L}=DõØîÎ,âﬁ–‘˚s'@Íw®Í[ˇiÂmZ˝ØÜa7üñR/	b*@
o‹§∑éâ√!™R~^H¸Mwäl≈xww¨M™¢„\ , âÌ^ÛªËFBi[˜¯£í4üV8`PVL{Ÿ:ﬂ{’p°T∆y˚~àïtœÔ|ph…ﬁøpcRG+!=# ∑/#¸“h££'¨Òv	È@M˛$πÁV˜∆Ø~LO°pZ6D_¡b#Â¨˝¸x◊»ó…95∂F»Cj¶3MÑË-YM•«&kª]8&¯M˛≥ŸjÓÉ“°˙∫^¶ñM—E6ŒQ…bX∞¸üarPÍ‘h◊„@¨èÈl
=8w–6zWÓÎÅR+ÚæΩ©.îã4U /¶±≈~}ôY∆V®YC7≈9È’zEårobÅñ;Ì•¬ΩΩ"xèßûo©	ê\◊”tNéõØ@}r–pFVEo4OÕcΩõZë[;5≤h 8ΩÜUybÌû$µ'klÈ∂¬ƒÚö€›ô1(∫Y“ë∞)[JK6%iÃHπüz5úºØ£GO∞hX†§zSLπä"≈syæ°–ò=Cíµ ±æ#mï˛`fçjªö≠M>πÌ5∆Go@ åf<!ß&Ìë/Q∏®— ±*t„∂û éWï6€±6Ã ãsœŸ≈∞&…≤6ªV¡ùÓÊ–HeqËß™¯¥ œ‚‘±¬õï≥V≥ÎL∏Ã|‡SI¶\@ªÌa¯&à-à!Ô
üwÜ‡GÅk\ò”y‰ÕZ»<Gµƒ£ñø£∑ÆRi…Æ#L]Úî»∫√*±§#Ω8“%©b› ∏à¯Ÿõ$v+D€hæËëÙ#”å¸^´#•≠€„
;; Architecture extensions
#include weak "..\ARM\ARMv6-M-SYST.ddf"

;; Memory information ;;;;;;;;;;;;;;;;;;;;;;;;;;;;;;;;;;;;;;;;;;;;;;;;;;;;;
;;
;; Used to define address zones within the ARM address space (Memory).
;;
;;   Name      may be almost anything
;;   AdrSpace  must be Memory
;;   StartAdr  start of memory block
;;   EndAdr    end of memory block
;;   AccType   type of access, read-only (R), read-write (RW) or SFR (W)

[Memory]
;;         Name             AdrSpace    StartAdr    EndAdr      AccType   Width
Memory =  HPB0             Memory      0x40000000  0x40003FFF  W  
Memory =  HPB1             Memory      0x41000000  0x4100FFFF  W  
Memory =  HPB2             Memory      0x42000000  0x42007FFF  W  
Memory =  DIVAS            Memory      0x48000000  0x4800003F  W  
Memory =  IOBUS            Memory      0x60000000  0x6000023F  W  
Memory =  SystemSFR        Memory      0xE0000000  0xE00FFFFF  W  
Memory =  Flash            Memory      0x00000000  0x0003FFFF  R  
Memory =  RAM              Memory      0x20000000  0x20007FFF  RW 

TrustedRanges = true
UseSfrFilter = true

[SfrInclude]
File = ATSAMC21E.svd
                                                                                                                                                                                                                                                                                                                                                                                Wgò±á≥fRAbN˘Ÿ˙\! ı™˝{ølfn¨c±èlæY‘3}Èvm3Y;s∆NµI’„ááˆ,2™˜ñœŸ∑]w≥˜√_èj÷◊:}—ÿ Ê^√¨Ù¶’ﬁa}√¯‹fy∆/~Ó¥=xK{?ŸáÛ„≥8la–z€˝cù‹˛gàcwﬂåe{Ê}ó˛√q˚ﬂ–Ëf8Ÿ˛3Ù¯wÙ3Ñ'∞è¸7˜Îâ¡ÙYi¯∆_˝kfpç˜·|ÙÔ‘Ω√8ï„6{Wiú$,√à
òy©≠~ñEœ∆Y∆Ï≤ñ[“Ó~9^¯«›P}v^ï^M˚èé—Ñ¡∞†ÊeC’¢¡€xAE‹çdˇ≤∆eÚ¨ê¸$›3XÎˇµ0]ÀG∫n§Í1oi;›SÇ≥‘£"çÀÙù3%•≤~zË:Gô)ág•É}·ôæÚ»À7@˝±~Î·ÓÃ'ã{ú˛!Ó°o5øÚ~ø¥¥pª˘¸gÓg7èq¨2©=–·gÜWr d∂3≤˜y˘|e,—¸tß+Ó„°ˇçåªWóÊ[o˙wﬂ.±ùËÀéˆﬁ=ôSªœ¸Ò∂¸CñÙ;ˇ;ŒÕ¸};µ{Ïˆ‰¸->∂ıÛøõÙskg/Œpã?›ãc=Ÿº+∏ñÂ˛ﬁ√Õ≥éƒÒ¸≈nÙﬁ˜˚1ı∂ƒs’¬:©”º0·„∆IˇÑ1+O∂û?wÒæŒÔ‚{úS£k¬Wˇ‹}g8|{q≤ÖÁÏ]’ìV?)ñ$nî- c¬Å3æ3ÅÓ.C®\*™´ãK∞›6ÌÕÏ˛c›Ôƒ°àMã+ïi8ÓÙ!:˜V“ºgÛœ˘‰)“qçsÙ†Ç-˙Ù˘3¨}=Üêl%Lπ8¢Ë∆îcÊÈl∏à¡ñŒL}™H7ô≈ú96AöÕa=ä	V,{Üåf˙æ‚ÕÚ›BπrAÏ˙2‰(lÿ˙ÚÇ÷ˆ‘PµßmF∂!ä~Á%}∑Ü=k5i´;d˝ÿŒˆSL#U<7‚/µc∑´¨GŸ¸~2ËN≤‹•⁄√::]HÔﬁ§òi∆Â^ˇˇ˝úwe–ñ!—ñ‚Tá~Wﬁú~ˇÏª£J;zﬂŒ∞Ó?•ıÃ~Q§∑˛?Ñ£˝ó_˚„∏«Ê˝∏¯gw∑sæ¨çñmøøøq}˚2Ã{gJ√;˙¬À¡*i£*‚ﬂeßˇvy¢¯Ã£ñ≤‰òäŸcP∫ÛΩ´7,sÊ∞¸˜Èßàâ"Rbv%Yî„ò÷ª≤∑•¬ØùÛçÎZïæ«ñÊ9ä%≥æÅtÚùòÂpï°úøCıŒ©u≈•ò ÒñL¢»ûz(y°M‡πB„>1LıÎ|›}U^∆≈ı˛–›c_ˇ˚eä˛+Ëc	~Ê¯Í˚+«[9ﬁÏÛÊèè∏
:;J@pá4-iÒâ4HÊØ≈Î¸~Wﬁº?òŒ7øﬂƒs,G∫/fó‹_±ûƒÌô|ˇ–g{◊«~m‹æ÷–˚fìó“c˘Sﬂõ±ªè¶>RÊkk ÕnÏzXÓ#–{b ˜bŒÂú+ÑÛXvq≤ì2^Y˝ÉPÜ‚w√Œõ,˜E¯AeZ)Õ2’ cR*Í˛>0^®>˘n3Àπ∆78G]rË}˝*˜„˝öZ+ˇ‚Ñ´;Kßfg\5µS)1:%èá©’F¬©4XB-¿N,R—≠EÓ”0ÖÈú‚øH>ëVlΩYûØ—ì3¯”Î'e?ñ±}ãÒ’˜_§˙0ø»ÆRÔ–ØÈ.îgÏ±œuÓÅ´·aœ¨€Ÿâ1x”†¬¨~€We‰"EHGXGÙÑ=‘nzfˇW˙≥ñ¬UblŒÌfqÓ¡ésTÖ◊^K·$"Çrë’~x-g∫_ã¡ô/}øJ˘]ÍÙ⁄XÅØÕoﬂR{Œ≥w∂ü 2≠Ê œ2µŸn~˚,O<˛ΩΩä~-)?Ibö∆bª≠J
P±"–±B$	Ô'õXÚ«¶ÀYõNµtßûÙˇå#9c˙ª|˙ãå•‘1ŒŒ^ÙEH%⁄¥¢k{¨Ã{Ò–ÿt°π¯Go∞Ã£ˇÒñsˇ∆XÈngáG´üÄß2	z’Øÿµ≤C√Ô∂⁄ã“˜cX¯}´ÒÉM0ç8õêå’µ,ê∫K±üﬂÂ"Jñ«∆“ >Û1ﬁíˇY16°8U‹—è≥?l36Õñ<r⁄%Ì"O3«*â[ï~tr⁄ÑòIU´¨@ÀÀÏÁQl î8˛Ú!€G∞Qr•≈¨}<R8h=!®(∑®ÇÂÖ=] õ—`!aŒªú~/Òv.t‹wÍ⁄»Rı˜æ˘ì÷µu¯g+of˝◊/â }ï¥˝ˇ√¡›94GjÃjì∆>oŸF`É(^€_3∑Œï^:◊‚œCgõ˜Ω—Üe?ØΩ≤~;õ«9≤.Ø ∞Ω_Ÿc˚Ã{ˇé˚bÙ√÷ºﬂ~∑Ü3mÜıˇ3cªûác?[„∑˙/⁄€∞æ3œØò„Ûç˚~?óÎΩõÊ-€^›v“√èaïkX≥’vnº¯›vÊ(#@‹+!xn≤VﬁD˚©
íJ_üﬁÃª{Áá·ç}˝ÕÒ˝ã?∏›8ÃÌè}›˙›¯÷ªÌº◊™ÁéπñÜ˛ˆÆ`*I…üJ~»8ÈÜ∆qèŒÔÑÛﬂÀ6´>gvÀ˛äÎ]o±I]œïo)~À5ºæ”ƒ#Jw∆æW∫Ω∂ÆΩ$ƒeﬂ~@C§∂lˇ$ÙŸâ[,œ+Ó`≠Á+n(]àÃy.º¶T≈Ö£ùÃ∂t÷%,¬k¡©/;BzºÛÈ—Ñà—"Ârå£HÀKlU◊An¢Gy|SØèÑ{;]Ï÷jΩe˚tfΩÑØ4∑ç£âª:>Î6é)w‰∆Ω»ªÿÑŒÊ0ÔÕz~íä∆œ≤˘j√ëùr√3m+ñóö0y-|≠î~ÔÛ˚î∑øÂœFô^å∑{·◊‘-5I:UäÓØÎy÷oC,ºfó≈aªèËÁ˛Xå?°nÜˇ˜¸?˙êÌƒ!Û˝ø˛ﬁ2ÜÍ+∞TÒõ„…—în¢x∫´Æá(P‚∏Ü6˘o„±,ZåKî†GF!*]tu÷èJ ‚É!1°~ÈoN◊–ıdÉˇ,ÊézÿÖ,ÛUÃ‰©Êô†^m7,JŸk%∏ˇßN1Õ‰i°DáÂL˛ÁTÆ¶Ô>„rCÒk÷q≈H,ı§Ö~Ç‘Jh§Ö¢p¸l)≤ãï%A–@ú”%Ï12Õ*kÁ|°çA}Ë¸ﬂWﬂ¥3¬ÙŸπh„Õk,€çΩ•◊Ç˙≈ÈΩÓ‰TêÍBBAπ"n⁄& ûëóSãÎõ|XÁ˛ÃÊ¯’ˇ˛˚øztsé[îÔ,Êtÿ ŒiÏ˛lŒ{2≥”c=C;ûñﬂ—Ck—é!˝”Í}{Âò=%Û˝xR∑ms.∑Ka÷ﬂábø%0ú˜+Ú¯ºEÿ„·.Ïm?Ò¸ØÂˇ÷ìûªÚ106660000FF2B81573A2A3460A9509920F461E466B
:10667000397816222846FEF75BFD002800F09A8044
:10668000D94503DA3068401C306007E00A9A09995E
:10669000801A085C0DF80B000BF1010B7F1C4FF00A
:1066A000010AE5E73068401E30607F1C4FF0010AA8
:1066B00038783028F6D0397816222846FEF738FD8B
:1066C000002800F08480D9450ADB00BF59A1401B97
:1066D000085C0DF80B000BF1010B3168491E3160AD
:1066E0007F1C4FF0010AE6E70DF1FF335A5C4AB90F
:1066F00033685B1C3360491E0029F5DC04BF8DF84C
:106700000040012132689200BAF1000F326046D099
:106710004FF0070C91FBFCFCC1F10705CCEBCC0C56
:106720006544072295FBF2F20023C2EBC202AA1ACB
:1067300018BF0124A4468B425CDA072295FBF2F2D3
:106740001DF80340C2EBC202AA1A1ABF56F82C2049
:1067500004EB02140CF1010C46F82C406D1C5B1C80
:10676000E9E7002300252C48394608E0854204DA91
:1067700005EB850307EB4305303D491C01230F78EA
:10678000A7F13009B9F10A0FF0D30F46BCF12D0F74
:10679000316808BF6D426D18356003B917460C9912
:1067A00021B1BAF1000F08BF0B9F0F6020460EB059
:1067B000BDE8F08EFEF789FC406A39780278914294
:1067C00008BF7F1CBBF1000F7FF475AF70E759461F
:1067D000894591DA1DF80920072A06DD0DF1FF3100
:1067E00011F80920521C01F8092049463268521C50
:1067F000326081E7397841F0200170296446CED1BA
:106800003A4617F8011F2B2916BF2D2917F801CB7F
:106810004FF02B0CA5E7000000E1F50530313233D5
:1068200034353637383961626364656641424344C2
:1068300045460000000102030405060708090A0B8B
:106840000C0D0E0F0A0B0C0D0E0F000080B5AFF3F0
:106850000080024A11001820ABBEFBE726000200B0
:106860000E48016841F47001016000220C4908687B
:1068700040F0010008608A600B680A480A4A034039
:106880000B604A6000200B68084A23F480230B60E9
:10689000C8604FF0006111607047000088ED00E0B3
:1068A00000380240FFFFF6FE1030002408ED00E043
:1068B00000000000000000000102030406070809B0
:1068C0007047FEE7FEE7FEE7FEE770477047704758
:1068D00080B500F013F8BDE80140FCF74DB900E0C9
:1068E00000BF0448FBF766BCFBE7FAE70248FBF78A
:1068F000DCB90000AC1E0020000000200248416806
:1069000002788A1842607047C409002010B5074910
:1069100079441831064C7C44163404E00A68081D9A
:10692000114488470146A142F8D110BD2C00000057
:10693000480000004EF68851CEF20001086840F48D
:1069400070000860BFF34F8FBFF36F8F4FF0007080
:10695000E1EE100A7047000023B1FFFFC4140000ED
:10696000540A0020000000009BAEFFFF9A010000C7
:10697000E60100000000002000F00DF8002801D022
:10698000FFF7C4FFAFF300800020AFF30080F9F7FA
:1069900067FD00F002F80120704700F001B8000028
:1069A00007463846FFF752FFFBE7000001488047E3
:1069B0000148004761680008BD690008AFF3008026
:1069C000FFF7B8FFFFF7D8FF000000000102030443
:1069D00000002E004300FFF7FEBFFFF7FEBFFFF7EA
:1069E000FEBFFFF7FEBFFFF7FEBFFFF7FEBFFFF7DB
:1069F000FEBFFFF7FEBFFFF7FEBFFFF7FEBFFFF7CB
:106A0000FEBFFFF7FEBFFFF7FEBFFFF7FEBFFFF7BA
:106A1000FEBFFFF7FEBFFFF7FEBFFFF7FEBFFFF7AA
:106A2000FEBFFFF7FEBFFFF7FEBFFFF7FEBFFFF79A
:106A3000FEBFFFF7FEBFFFF7FEBFFFF7FEBFFFF78A
:106A4000FEBFFFF7FEBFFFF7FEBFFFF7FEBFFFF77A
:106A5000FEBFFFF7FEBFFFF7FEBFFFF7FEBFFFF76A
:106A6000FEBFFFF7FEBFFFF7FEBFFFF7FEBFFFF75A
:106A7000FEBFFFF7FEBFFFF7FEBFFFF7FEBFFFF74A
:106A8000FEBFFFF7FEBFFFF7FEBFFFF7FEBFFFF73A
:106A9000FEBFFFF7FEBFFFF7FEBFFFF7FEBFFFF72A
:106AA000FEBFFFF7FEBFFFF7FEBFFFF7FEBFFFF71A
:106AB000FEBFFFF7FEBFFFF7FEBFFFF7FEBFFFF70A
:106AC000FEBFFFF7FEBFFFF7FEBFFFF7FEBFFFF7FA
:106AD000FEBFFFF7FEBFFFF7FEBFFFF7FEBFFFF7EA
:106AE000FEBFFFF7FEBFFFF7FEBFFFF7FEBFFFF7DA
:106AF000FEBFFFF7FEBFFFF7FEBFFFF7FEBFFFF7CA
:106B0000FEBFFFF7FEBFF242000183010004210136
:106B1000D00F41542B43495053454E443D302C2512
:106B2000640D0A75430D0A22F008FF434C4F53458C
:106B30003D300D0A0001F1FF01F1FF01F1FF01F10C
:106B4000FF01F1FF01F1FF01F18D012D1E08FC0590
:106B50000C574D4F44453D331C081128FC01115280
:106B600053543F0831501C035341503D227208508A
:106B700004434B222C2231018002222C312C644D03
:106B80009608F0030F4D55583D31783DE008FC065E
:106B900007525645523D312C38C208FC011441546D
:106BA00045DD08315060014653522CF10F606D688D
:106BB00009221008F0050724F400D06900080452E7
:106BC000FF01F200D21410010000D40C214C20026D
:106BD000D40900204B2002DB4F00080852D50812D0
:106BE000F10812D90443055010210110035521006A
:096BF000084D04433B213C210146
:04000005080069BDC9
:00000001FF
